:100000000C94E5020C9416030C9416030C9416033E
:100010000C9416030C9416030C9416030C941603FC
:100020000C9416030C9416030C9416030C941603EC
:100030000C9416030C9416030C9416030C941603DC
:100040000C9416030C9416030C9416030C941603CC
:100050000C9416030C9416030C9416030C94596B11
:100060000C9416030C942F6B0C94056B0C941603D4
:100070000C9416030C9416030C9416030C9416039C
:100080000C9416030C9416030C9416030C9416038C
:100090000C94DB6A0C94B16A0C9416030C94A36B59
:1000A0000C9416030C9416030C9416030C9416036C
:1000B0000C9416030C9416030C9416030C9416035C
:1000C0000C9416030C9416030C9416030C94876A74
:1000D0000C945D6A0C9416030C94336A0C94096AB0
:1000E0000C9416030C94E9050C949E330C949E50CA
:1000F0000C9405070C943D070C94B3550C940B33EA
:100100000C94C36C0C9478050C94C9080C94265676
:100110000C94F4510C94A7080C9405790C940E06D9
:100120000C9485310C9433070C94F7520C942C33B7
:100130000C94464E0C9429070C9467310C949559F5
:100140000C9420060C9430330C94DB050C94FB06C5
:100150000C94DD4B0C946A070C94364D0C941633BA
:100160000C9478510C9448330C94A24B0C94D00806
:100170000C942D310C945B4E0C9412060C94674930
:100180000C94F0050C94EC060C9460070C9443045A
:100190000C941B060C94ED050C949E4E0C94764921
:1001A0000C9410050C94AC040C9417070C94FD08E7
:1001B0000C9404060C9497330C947E070C94614FB6
:1001C0000C944C070C9416060C943B500C945A500B
:1001D0000C94644E0C943D040C94F1060C94B156AE
:1001E0000C94E1050C941F520C9408060C943A33BD
:1001F0000C9487330C94E5050C94C46C0C94D26475
:100200000C94B2450C943F330C94B6080C94FA0548
:100210000C9456070C94F6050C94BA040C94164CE6
:100220000C940F070C9498040C9400060C945A51EB
:100230000C94F5320C9474070C941F070C948450A2
:100240000C947F330C94BB4B0C943C330C94E4061D
:100250000C941C060C9489040C9483336F666673AB
:10026000657400636F6E7369676E65466F72636174
:100270006765006175746F7269736174696F6E464A
:100280006F7263616765004B64004B69004B7000DF
:10029000636F6E7369676E6500726567756C546530
:1002A0006D70006F666673657400636F6E73696767
:1002B0006E65466F7263616765006175746F726920
:1002C000736174696F6E466F7263616765004B643A
:1002D000004B69004B7000636F6E7369676E650059
:1002E000726567756C70480063616C69622E766137
:1002F0006C75653A0063616C69622E63616C69625A
:10030000506172616D3A0063616C69622E73656E53
:10031000736F7249443A0076616C75650063616C75
:100320006962506172616D0073656E736F724944EA
:100330000043414C49422052455120726563656932
:1003400076656400CDCCCC3D0AD7233C17B7D138B5
:1003500077CC2B329595E6241FB14F0A0000803FE1
:10036000CDCCCC3D6F12833A95BFD6337D1D902600
:10037000B3CE010C000020410000C84200401C46E2
:1003800020BCBE4CCA1B0E5AAEC59D740000210095
:10039000240027002A002D00300033000101000056
:1003A000040107010A0100002200250028002B009B
:1003B0002E003100340002010000050108010B018C
:1003C000000020002300260029002C002F0032000E
:1003D00000010000030106010901050505050705E7
:1003E00008080808020202020A0A080804040404B1
:1003F00001010101010101010303030303030303DD
:10040000040707070C0C0C0C0C0C0C0C020202026B
:1004100006060606060606060B0B0B0B0B0B0B0B54
:100420000102102020080810204010204080020106
:1004300002010804020101020408102040808040EB
:1004400020100804020180040201804020100804EA
:100450000201080402010102040810204080010288
:1004600004081020408000000A0B02090C0D0E0841
:10047000070304010000000000000000000000006D
:10048000000000000000000000000000000000006C
:100490000000121110000000000000000000000029
:1004A000000000000000000000000000717565728F
:1004B000792073656E74007175657279204F4B00F9
:1004C000666163746F727920726573657400736519
:1004D0006E642063616C69622076616C7565204F83
:1004E0004B0067657420737461747573204F4B0003
:1004F00073656E642063616C6962204F4B007365A5
:1005000074204C6576656C2053204F4B0043414C62
:1005100049422048414D494C544F4E0070483A00E2
:1005200070483A004C6576656C4C4C004C657665BD
:100530006C4C004C6576656C4800646562697400BB
:1005400070480074656D7065726174757265004DF8
:1005500065736F494400736F727469655049445FF5
:10056000706300636F6E7369676E650072656775AF
:100570006C704800736F727469655049445F7063B2
:1005800000636F6E7369676E6500726567756C54A2
:10059000656D7000646174610074696D6500704818
:1005A0000074656D70657261747572650073656E57
:1005B000646572494400636F6E64494400636F6D03
:1005C0006D616E640000C46C057911241FBECFEF0D
:1005D000D1E2DEBFCDBF00E00CBF16E0A0E0B2E08C
:1005E000EEE3FFEF00E00BBF02C007900D92AE34C8
:1005F000B107D9F72FE0AEE4B6E001C01D92A035F7
:10060000B207E1F712E0C4EED2E000E006C02197A5
:100610000109802FFE010E94307DC33ED10780E09A
:100620000807A9F70E94736E0C948D7F0C9400004C
:10063000CF92DF92EF92FF92CF93DF93EC016A01AA
:100640007B01E889F98982E08083C11481EED806B4
:10065000E104F104A1F060E079E08DE390E0A7010E
:1006600096010E94867B2150310941095109569516
:10067000479537952795211580E1380798F0E88947
:10068000F989108260E874E88EE190E0A701960194
:100690000E94867B215031094109510956954795A1
:1006A00037952795EC85FD853083EE85FF85208382
:1006B000188EEC89FD8986E08083EA89FB89808138
:1006C00080618083EA89FB89808188608083EA89F0
:1006D000FB89808180688083EA89FB8980818F7DA6
:1006E0008083DF91CF91FF90EF90DF90CF900895BE
:1006F0008CBD9DBD08956F927F928F929F92AF9215
:10070000BF92CF92DF92EF92FF920F931F93CF93FE
:10071000DF93E0913108F0913208DF0120E833E304
:1007200041EE51E00E94C77B4B015C012FE4921A1D
:100730002EEFA20A26E7B20A22EB37E0C4E6D0E0A9
:1007400000E911E02E173F07D8F160903008712CB6
:10075000CF0164E670E00E94087D7C01CF0160E972
:1007600071E00E94087D6C0106E812E0C1E0D0E073
:10077000E370FF27C615D705F4F5D8018D918D01DB
:10078000A82FB0E020E831E541E050E00E94C77BAF
:10079000860E971EA81EB91EC230D10579F4309777
:1007A00031F0E114F10451F4C114D10439F0B0E88E
:1007B0008B0EB1E59B1EB1E0AB1EB11C2196DACFCA
:1007C000C90183709927892B61F0C901BE010E947C
:1007D000087D892B69F4C901B8010E94087D892B25
:1007E00039F080E8880E81E5981E81E0A81EB11CD2
:1007F0002F5F3F4FA7CFA0912F08B0E020E831E551
:1008000041E050E00E94C77BC0902B08D12CF12C16
:10081000E12C20E8C21A21E5D20A21E0E20AF1081F
:10082000C60ED71EE81EF91E20912D0830E0A0E16B
:10083000BEE00E94DA7BC60ED71EE81EF91E20918C
:100840002C0830E0ACE3B0E00E94DA7B6C0D7D1D3B
:100850008E1D9F1D680D791D8A1D9B1DDF91CF91F7
:100860001F910F91FF90EF90DF90CF90BF90AF90CE
:100870009F908F907F906F900895FC01818D928D55
:10088000089508950895AF92BF92CF92DF92EF92AC
:10089000FF920F931F93CF93DF936C017B018B012A
:1008A000040F151FEB015E01AE18BF08C017D1077A
:1008B00059F06991D601ED91FC910190F081E02D04
:1008C000C6011995892B79F7C501DF91CF911F9149
:1008D0000F91FF90EF90DF90CF90BF90AF90089571
:1008E000FC01A089B1898C91A689B78982FD0FC0CE
:1008F0009C91818D8F5F8F73228D821749F0A18D1E
:10090000AE0FBF2FB11D5D969C93818F08958C9182
:100910000895FC01538D448D252F30E0842F90E005
:10092000821B930B541710F0CF96089501970895EA
:10093000FC01918D828D981761F0A28DAE0FBF2FB3
:10094000B11D5D968C91928D9F5F9F73928F90E009
:1009500008958FEF9FEF0895FC01918D828D981778
:1009600031F0828DE80FF11D858D90E008958FEFB5
:100970009FEF0895FC01918D228D892F90E0805C7E
:100980009F4F821B91098F739927089581E49DE001
:100990000E94BA0421E0892B09F420E0822F0895F7
:1009A0008CE89AE00E94BA0421E0892B09F420E047
:1009B000822F089589E29BE00E94BA0421E0892BEE
:1009C00009F420E0822F089586EC9BE00E94BA048F
:1009D00021E0892B09F420E0822F0895FC01A48DE9
:1009E000A80FB92FB11DA35ABF4F2C91848D90E051
:1009F00001968F739927848FA689B7892C93A08934
:100A0000B1898C91837080648C93938D848D9813BD
:100A100006C00288F389E02D80818F7D8083089550
:100A2000EF92FF920F931F93CF93DF93EC0181E03E
:100A3000888F9B8D8C8D98131AC0E889F9898081E5
:100A400085FF15C09FB7F894EE89FF896083E88918
:100A5000F98980818370806480839FBF81E090E00A
:100A6000DF91CF911F910F91FF90EF900895F62E97
:100A70000B8D10E00F5F1F4F0F731127E02E8C8D31
:100A80008E110CC00FB607FCFACFE889F989808176
:100A900085FFF5CFCE010E94EE04F1CFEB8DEC0F78
:100AA000FD2FF11DE35AFF4FF0829FB7F8940B8F93
:100AB000EA89FB8980818062CFCF0F931F93CF9308
:100AC000DF938C01D0E0C0E0F801EC0FFD1F6491D2
:100AD000662341F086EC9BE00E941005892B11F003
:100AE0002196F2CFCE01DF91CF911F910F91089502
:100AF000CF93DF93EC01888D8823B9F0AA89BB8955
:100B0000E889F9898C9185FD03C0808186FD0DC03F
:100B10000FB607FCF7CF8C9185FFF2CF808185FF60
:100B2000EDCFCE010E94EE04E9CFDF91CF91089581
:100B300080E090E0892B29F00E94E40481110E945A
:100B4000000080E090E0892B29F00E94DA048111F6
:100B50000E94000080E090E0892B29F00E94D004E0
:100B600081110E94000080E090E0892B29F00E9412
:100B7000C60481110C94000008958150823108F060
:100B80005AC0E82FF0E08827E753FA4F8F4F0C94B4
:100B9000307DE905ED05DB05E105E5051B06F00502
:100BA000F605FA050006040608060E0612061B06E0
:100BB00016061C062006809180008F7780938000A7
:100BC0000895809180008F7DF9CF80918000877F8C
:100BD000F5CF84B58F7784BD089584B58F7DFBCF25
:100BE0008091B0008F778093B00008958091B0001D
:100BF0008F7DF9CF809190008F778093900008953A
:100C0000809190008F7DF9CF80919000877FF5CF04
:100C10008091A0008F778093A00008958091A0001C
:100C20008F7DF9CF8091A000877FF5CF8091200143
:100C30008F77809320010895809120018F7DF9CFD7
:100C400080912001877FF5CFCF93DF93282F30E06D
:100C5000F901EA59FB4F8491F901E05EFB4FD49111
:100C6000F901E652FC4FC491CC23A1F081110E94FE
:100C7000BD05EC2FF0E0EE0FFF1FE054FC4FA591F7
:100C8000B491EC91ED2381E090E009F480E0DF91F4
:100C9000CF91089580E090E0FACF1F93CF93DF9338
:100CA000282F30E0F901EA59FB4F8491F901E05E09
:100CB000FB4FD491F901E652FC4FC491CC23A9F02B
:100CC000162F81110E94BD05EC2FF0E0EE0FFF1FE3
:100CD000EA55FC4FA591B4918FB7F894EC9111119E
:100CE00008C0D095DE23DC938FBFDF91CF911F9199
:100CF0000895DE2BF8CFCF93DF9390E0FC01E05E08
:100D0000FB4F249186529C4FFC0184918823D1F0A3
:100D100090E0880F991FFC01E457FC4FA591B49116
:100D2000FC01EA55FC4FC591D49161110EC09FB7EB
:100D3000F8948C91E22FE0958E238C932881E22306
:100D4000E8839FBFDF91CF9108958FB7F894EC911E
:100D5000E22BEC938FBFF6CF1F93CF93DF93182F27
:100D6000EB0161E00E947B06209739F460E0812F5F
:100D7000DF91CF911F910C944D06CF3FD10511F417
:100D800061E0F5CFE12FF0E0EA59FB4FE491E1504B
:100D9000E23108F0B3C0F0E08827EE52F94F8F4FF0
:100DA0000C94307DE406EC06F106FB0605077E0791
:100DB0000F0717071F07290733073D074C0756077B
:100DC0007E0760076A07740784B5806884BDC7BD65
:100DD000DF91CF911F91089584B5806284BDC8BD15
:100DE000F7CF80918000806880938000D093890045
:100DF000C0938800EDCF8091800080628093800056
:100E0000D0938B00C0938A00E3CF809180008860EC
:100E100080938000D0938D00C0938C00D9CF8091B7
:100E2000B00080688093B000C093B300D1CF8091B0
:100E3000B00080628093B000C093B400C9CF8091AD
:100E40009000806880939000D0939900C0939800A0
:100E5000BFCF80919000806280939000D0939B00E0
:100E6000C0939A00B5CF80919000886080939000E5
:100E7000D0939D00C0939C00ABCF8091A000806870
:100E80008093A0008091A0008F7B8093A000D093DE
:100E9000A900C093A8009CCF8091A000806280939D
:100EA000A000D093AB00C093AA0092CF8091A00085
:100EB00088608093A000D093AD00C093AC0088CF31
:100EC00080912001806880932001D0932901C093F4
:100ED00028017ECF80912001806280932001D093F1
:100EE0002B01C0932A0174CF8091200188608093E8
:100EF0002001D0932D01C0932C016ACFC038D105B9
:100F00000CF03ECF33CF3FB7F8948091010790911A
:100F10000207A0910307B091040726B5A89B05C05E
:100F20002F3F19F00196A11DB11D3FBFBA2FA92F68
:100F3000982F8827BC01CD01620F711D811D911D65
:100F400042E0660F771F881F991F4A95D1F70895D1
:100F50008F929F92AF92BF92CF92DF92EF92FF92C9
:100F60004B015C010E9483076B017C010E94830797
:100F70006C197D098E099F09683E734081059105B2
:100F8000A8F321E0821A9108A108B10888EEC80EE2
:100F900083E0D81EE11CF11C81149104A104B1046A
:100FA00029F7FF90EF90DF90CF90BF90AF909F9088
:100FB0008F9008952FB7F8946091FD067091FE060A
:100FC0008091FF06909100072FBF08958F929F9206
:100FD000AF92BF92EF92FF920F931F93CF93DF9345
:100FE0007C01EB010E94DA074B015C01209709F4B8
:100FF0004DC08091130D9091140D009761F480E025
:10100000DF91CF911F910F91FF90EF90BF90AF9024
:101010009F908F900895DC01ED91FC910688F789EF
:10102000E02D1995882359F30E94DA076819790988
:101030008A099B096D3D75408105910500F78091F6
:10104000130D9091140DDC01ED91FC910084F1855C
:10105000E02D1995892B51F28091130D9091140D6B
:10106000DC01ED91FC910288F389E02DAE01B7011E
:1010700019958C01892B09F4B9CF0E94DA074B012D
:101080005C01E00EF11EC01BD10BB0CF81E0B8CFE8
:101090000F931F93CF93DF93EC010E94DA076887C9
:1010A00079878A879B87E881F9810284F385E02D1F
:1010B000CE01199597FF15C00E94DA07088519859A
:1010C0002A853B85601B710B820B930B0C811D8164
:1010D0002E813F81601771078207930720F38FEFFE
:1010E0009FEFDF91CF911F910F91089585ED809330
:1010F000BC008091BC0084FDFCCF1092650C08956B
:101100002091B506260F3327331F21323105ECF429
:101110002091650CFC0190E080E0243069F082E0D1
:101120000895A091B5062191AC014B56594FA40FDB
:10113000B52FB11D2C930196861798F38091B506B3
:10114000680F6093B50680E0089581E00895E0910E
:10115000690C8091680CE81730F4F0E0EB58F94F17
:10116000808190E008958FEF9FEF08959091690C32
:101170008091680C2FEF3FEF981748F4E92FF0E0CB
:10118000EB58F94F208130E09F5F9093690CC901C3
:1011900008958091680C9091690C891B990B0895B2
:1011A000CF92DF92EF92FF920F931F93CF93DF9333
:1011B0007C01CB018A0120917406222389F0EB0186
:1011C0006B01C40ED51ECC15DD0569F06991D70100
:1011D000ED91FC910190F081E02DC7011995F3CFBD
:1011E000642F0E948008C801DF91CF911F910F9159
:1011F000FF90EF90DF90CF900895CF93DF931F92F1
:10120000CDB7DEB76983209174062223F9F02091CF
:10121000660C203258F021E030E0FC013383228359
:1012200090E080E00F90DF91CF9108958091670C5E
:10123000E82FF0E0EC5AF94F998190838F5F80930B
:10124000670C8093660C81E090E0ECCF61E0CE010A
:1012500001960E948008F7CF2F923F924F925F92A3
:101260006F927F928F929F92AF92BF92CF92DF92B6
:10127000EF92FF920F931F93CF93DF93CDB7DEB71B
:10128000CA56D1090FB6F894DEBF0FBECDBFA796E0
:101290009FAF8EAFA797FB0160817181828193819F
:1012A0000E94387D6D877E878F87988B64817581DA
:1012B000868197810E94387D698B7A8B8B8B9C8B82
:1012C00060857185828593850E94387D69A77AA79C
:1012D0008BA79CA764857585868597850E94387D38
:1012E00069AF7AAF8BAF9CAF60897189828993892E
:1012F0000E94387D21966CAF7DAF8EAF9FAF219756
:1013000064897589868997890E94387D6DA77EA733
:101310008FA798AB608D718D828D938D0E94387DE3
:101320006D8B7E8B8F8B988F648D758D868D978D51
:101330000E94387D698F7A8F8B8F9C8F60A171A1FD
:1013400082A193A10E94387D25966CAF7DAF8EAFB0
:101350009FAF259764A175A186A197A10E94387DB2
:101360006D8F7E8F8F8F98A360A571A582A593A5A1
:101370000E94387D69A37AA38BA39CA364A575A55D
:1013800086A597A50E94387D69AB7AAB8BAB9CABE9
:1013900060A971A982A993A90E94387D61966CAF5A
:1013A0007DAF8EAF9FAF619764A975A986A997A9F4
:1013B0000E94387D69877A878B879C8760AD71AD85
:1013C00082AD93AD0E94387D29966CAF7DAF8EAF14
:1013D0009FAF299764AD75AD86AD97AD0E94387DFE
:1013E0002D966CAF7DAF8EAF9FAF2D97A796AEAD0C
:1013F000BFADA7974D905D906D907C9013976596CB
:101400004CAE5DAE6EAE7FAE659714964D905D901E
:101410006D907C9017976D964CAE5DAE6EAE7FAEC4
:101420006D9718964D905D906D907C901B97699686
:101430004CAE5DAE6EAE7FAE69971C964D905D90E2
:101440006D907C901F97A1964CAE5DAE6EAE7FAE58
:10145000A19750964D905D906D907C905397A59676
:101460004CAE5DAE6EAE7FAEA59769968CAD9DAD70
:10147000AEADBFAD6997A1964CAC5DAC6EAC7FAC28
:10148000A19784259525A625B7256D966CAC7DACD6
:101490008EAC9FAC6D9786219721A821B921A1968A
:1014A0008CAC9DACAEACBFACA19788259925AA2584
:1014B000BB2565960CAD1DAD2EAD3FAD659745E0E6
:1014C000000F111F221F331F4A95D1F765964CADAF
:1014D0005DAD6EAD7FAD6597EBE176956795579500
:1014E0004795EA95D1F7402B512B622B732BA5968C
:1014F0000CAD1DAD2EAD3FADA597075616482D4737
:10150000354A400F511F621F731F840F951FA61F7E
:10151000B71FAD84BE84CF84D8888A0D9B1DAC1DB7
:10152000BD1D6D960CAD1DAD2EAD3FAD6D97F2E0BE
:101530003695279517950795FA95D1F76D964CAD89
:101540005DAD6EAD7FAD6D97EEE1440F551F661F2B
:10155000771FEA95D1F7402B512B622B732B69969D
:10156000CCACDDACEEACFFAC6997C426D526E62644
:10157000F72665960CAD1DAD2EAD3FAD6597C0222B
:10158000D122E222F32269964CAC5DAC6EAC7FAC0A
:101590006997C424D524E624F724A1960CAD1DAD8B
:1015A0002EAD3FADA197075616482D47354A0C0D75
:1015B0001D1D2E1D3F1D69887A888B889C88060D0D
:1015C000171D281D391D6C017D01F5E0CC0CDD1CBB
:1015D000EE1CFF1CFA95D1F74C015D01EBE1B694CE
:1015E000A79497948794EA95D1F7C828D928EA2830
:1015F000FB2846015701800E911EA21EB31E898250
:101600009A82AB82BC8265960CAD1DAD2EAD3FAD0E
:101610006597F2E03695279517950795FA95D1F7D6
:101620006596CCACDDACEEACFFAC6597EEE1CC0CD6
:10163000DD1CEE1CFF1CEA95D1F7C02AD12AE22A54
:10164000F32A4A015B018C249D24AE24BF24882206
:101650009922AA22BB2284269526A626B726699619
:101660000CAD1DAD2EAD3FAD6997075616482D4701
:10167000354A49A45AA46BA47CA4040D151D261D4B
:10168000371D800E911EA21EB31E09811A812B8167
:101690003C81F5E0000F111F221F331FFA95D1F78F
:1016A00049805A806B807C80EBE1769467945794F4
:1016B0004794EA95D1F70429152926293729800E60
:1016C000911EA21EB31E8C019D01F2E03695279556
:1016D00017950795FA95D1F72C013D01AEE1440C21
:1016E000551C661C771CAA95D1F7402A512A622AFC
:1016F000732AD701C60184259525A625B72509811A
:101700001A812B813C8180239123A223B3238C2532
:101710009D25AE25BF25475656486D47754A09ADEC
:101720001AAD2BAD3CAD400F511F621F731F480F08
:10173000591F6A1F7B1FD501C40115E0880F991F2F
:10174000AA1FBB1F1A95D1F795018401EBE13695CD
:10175000279517950795EA95D1F7802B912BA22B0A
:10176000B32B8C019D01040F151F261F371F0D83FE
:101770001E832F83388789819A81AB81BC81F2E0F7
:10178000B695A79597958795FA95D1F749815A818E
:101790006B817C811EE1440F551F661F771F1A95D0
:1017A000D1F7482B592B6A2B7B2BD301C2018427FD
:1017B0009527A627B72788219921AA21BB2184250F
:1017C0009525A625B72517E6C11A16E8D10A1DE703
:1017D000E10A15EAF10A21960CAD1DAD2EAD3FAD23
:1017E0002197C00ED11EE21EF31E8C0D9D1DAE1D55
:1017F000BF1DCD80DE80EF80F88405E0CC0CDD1CC1
:10180000EE1CFF1C0A95D1F70D811E812F813885B2
:10181000EBE13695279517950795EA95D1F70C29B1
:101820001D292E293F2968017901C80ED91EEA1EFB
:10183000FB1EC982DA82EB82FC82D501C401F2E090
:10184000B695A79597958795FA95D1F79501840157
:10185000EEE1000F111F221F331FEA95D1F7082B6D
:10186000192B2A2B3B2BDB01CA0180279127A227AA
:10187000B3278D809E80AF80B88488219921AA21CA
:10188000BB216C017D01C426D526E626F7268DA551
:101890009EA5AFA5B8A987569648AD47B54A840D11
:1018A000951DA61DB71D8C0D9D1DAE1DBF1D8980EC
:1018B0009A80AB80BC80F5E0880C991CAA1CBB1CEC
:1018C000FA95D1F749805A806B807C80EBE1769461
:1018D000679457944794EA95D1F784289528A628C9
:1018E000B728880D991DAA1DBB1DCD80DE80EF8015
:1018F000F884F2E0F694E794D794C794FA95D1F778
:101900004D805E806F807884EEE1440C551C661C2F
:10191000771CEA95D1F74C285D286E287F2868014E
:101920007901C424D524E624F72489809A80AB80E9
:10193000BC80C820D920EA20FB2046015701802620
:101940009126A226B326CD88DE88EF88F88CE7E6BC
:10195000CE1AE6E8DE0AEDE7EE0AE5EAFE0AC40E74
:10196000D51EE61EF71EC80CD91CEA1CFB1CAC01D8
:10197000BD01F5E0440F551F661F771FFA95D1F79B
:101980004C015D01EBE1B694A79497948794EA9596
:10199000D1F7482959296A297B294A015B018C0C16
:1019A0009D1CAE1CBF1C8D829E82AF82B886498171
:1019B0005A816B817C81F2E07695679557954795C2
:1019C000FA95D1F7C980DA80EB80FC80EEE1CC0C8F
:1019D000DD1CEE1CFF1CEA95D1F7C42AD52AE62AA5
:1019E000F72A530142018C249D24AE24BF2488226F
:1019F0009922AA22BB22B501A401442555256625BA
:101A00007725898C9A8CAB8CBC8CE7E68E1AE6E83D
:101A10009E0AEDE7AE0AE5EABE0A800E911EA21EFE
:101A2000B31E840E951EA61EB71E0D811E812F812A
:101A30003885F5E0000F111F221F331FFA95D1F7EB
:101A40004D815E816F817885EBE17695679557953D
:101A50004795EA95D1F7042B152B262B372B800EB3
:101A6000911EA21EB31EAC01BD01F2E076956795F2
:101A700057954795FA95D1F78C019D01AEE1000F7E
:101A8000111F221F331FAA95D1F7042B152B262BCC
:101A9000372BD701C60180279127A227B3274D8175
:101AA0005E816F81788584239523A623B7238C25B7
:101AB0009D25AE25BF2525964CAD5DAD6EAD7FADA8
:101AC0002597475656486D47754A440D551D661D66
:101AD000771D480F591F6A1F7B1FD501C401E5E020
:101AE000880F991FAA1FBB1FEA95D1F72401350162
:101AF000FBE17694679457944794FA95D1F784293B
:101B00009529A629B7292C013D01440E551E661EB4
:101B1000771E49825A826B827C828D819E81AF8141
:101B2000B88542E0B695A795979587954A95D1F7E0
:101B30004D815E816F817885EEE1440F551F661FF0
:101B4000771FEA95D1F7482B592B6A2B7B2BD901AC
:101B5000C80184279527A627B72788219921AA217C
:101B6000BB212C013D0140265126622673268D8D16
:101B70009E8DAF8DB8A187569648AD47B54A8C0D5E
:101B80009D1DAE1DBF1D840D951DA61DB71DC980D1
:101B9000DA80EB80FC80F5E0CC0CDD1CEE1CFF1C39
:101BA000FA95D1F749805A806B807C80EBE176947E
:101BB000679457944794EA95D1F74C285D286E288E
:101BC0007F28480E591E6A1E7B1ED501C401F2E013
:101BD000B695A79597958795FA95D1F77501640104
:101BE000EEE1CC0CDD1CEE1CFF1CEA95D1F7C82AF7
:101BF000D92AEA2AFB2ACD82DE82EF82F886D70133
:101C0000C60184279527A627B72789809A80AB80AD
:101C1000BC8088219921AA21BB216C017D01C426A9
:101C2000D526E626F72689A19AA1ABA1BCA18756A5
:101C30009648AD47B54A800F911FA21FB31F8C0D68
:101C40009D1DAE1DBF1D53014201F5E0880C991C7E
:101C5000AA1CBB1CFA95D1F793018201EBE13695E2
:101C6000279517950795EA95D1F7802A912AA22AF8
:101C7000B32A880D991DAA1DBB1D09811A812B81CC
:101C80003C81F2E03695279517950795FA95D1F79F
:101C9000A980BA80CB80DC80EEE1AA0CBB1CCC1CF6
:101CA000DD1CEA95D1F7A02AB12AC22AD32AA9823B
:101CB000BA82CB82DC82CD80DE80EF80F88409811D
:101CC0001A812B813C81C026D126E226F326C4202E
:101CD000D520E620F7200D811E812F8138850C2527
:101CE0001D252E253F25C9A8DAA8EBA8FCA8E7E604
:101CF000CE1AE6E8DE0AEDE7EE0AE5EAFE0AC40ED1
:101D0000D51EE61EF71EC00ED11EE21EF31EAC014C
:101D1000BD01F5E0440F551F661F771FFA95D1F7F7
:101D20004C015D011BE1B694A794979487941A9592
:101D3000D1F7482959296A297B29C40ED51EE61EE8
:101D4000F71EB301A20102E0769567955795479576
:101D50000A95D1F793018201EEE1000F111F221FB6
:101D6000331FEA95D1F7042B152B262B372B8980AF
:101D70009A80AB80BC8080269126A226B32688223A
:101D80009922AA22BB2249805A806B807C804824F9
:101D900059246A247B2461968CAC9DACAEACBFAC5C
:101DA0006197F7E68F1AF6E89F0AFDE7AF0AF5EAB2
:101DB000BF0A4D815E816F817885840E951EA61EB7
:101DC000B71E840C951CA61CB71C26013701F5E034
:101DD000440C551C661C771CFA95D1F7B701A60177
:101DE000EBE17695679557954795EA95D1F7442AA3
:101DF000552A662A772AB301A201480D591D6A1D8A
:101E00007B1D4D835E836F837887AC01BD01F2E05B
:101E10007695679557954795FA95D1F74C015D01F1
:101E2000AEE1880C991CAA1CBB1CAA95D1F7842A88
:101E3000952AA62AB72AD901C80188259925AA2555
:101E4000BB258C219D21AE21BF2180279127A22770
:101E5000B32749855A856B857C85475656486D471B
:101E6000754A49805A806B807C80440D551D661DE3
:101E7000771D480F591F6A1F7B1F8D819E81AF817F
:101E8000B885E5E0880F991FAA1FBB1FEA95D1F717
:101E90004D805E806F807884FBE1769467945794E0
:101EA0004794FA95D1F784299529A629B729480F8F
:101EB000591F6A1F7B1FD701C601E2E0B695A7959F
:101EC00097958795EA95D1F726013701FEE1440CF5
:101ED000551C661C771CFA95D1F7482A592A6A2A9C
:101EE0007B2A49825A826B827C82482459246A2444
:101EF0007B24CD80DE80EF80F8844C205D206E2036
:101F00007F2073016201C824D924EA24FB24299686
:101F10004CAC5DAC6EAC7FAC299787E6481A86E87E
:101F2000580A8DE7680A85EA780A400E511E621E3B
:101F3000731E4C0C5D1C6E1C7F1C6A017B01A5E0AE
:101F4000CC0CDD1CEE1CFF1CAA95D1F78A019B016D
:101F5000BBE13695279517950795BA95D1F7C02A15
:101F6000D12AE22AF32A4C0C5D1C6E1C7F1C8D8149
:101F70009E81AF81B88512E0B695A7959795879514
:101F80001A95D1F7CD80DE80EF80F8840EE1CC0C7D
:101F9000DD1CEE1CFF1C0A95D1F7C82AD92AEA2AB3
:101FA000FB2ACD82DE82EF82F88689819A81AB811D
:101FB000BC818C259D25AE25BF2584239523A62392
:101FC000B723C980DA80EB80FC80C826D926EA26B0
:101FD000FB262D968CAD9DADAEADBFAD2D97875632
:101FE0009648AD47B54A880D991DAA1DBB1D8C0D9D
:101FF0009D1DAE1DBF1D5301420125E0880C991C9B
:10200000AA1CBB1C2A95D1F793018201EBE13695FE
:10201000279517950795EA95D1F7802A912AA22A44
:10202000B32A880D991DAA1DBB1D8A019B01F2E0F0
:102030003695279517950795FA95D1F7EEE1440F58
:10204000551F661F771FEA95D1F7402B512B622B46
:10205000732B0D851E852F85388989A49AA4ABA47E
:10206000BCA4082519252A253B252596ACACBDAC7A
:10207000CEACDFAC25970A251B252C253D25C98430
:10208000DA84EB84FC840C251D252E253F25480190
:102090005901880C991CAA1CBB1C811C8D869E862C
:1020A000AF86B88ACD80DE80EF80F884C426D5263E
:1020B000E626F726C420D520E620F7200D811E81D4
:1020C0002F8138850C251D252E253F25750164019E
:1020D000E7E6CE1AE6E8DE0AEDE7EE0AE5EAFE0AF2
:1020E00089809A80AB80BC80C80CD91CEA1CFB1C80
:1020F000C00ED11EE21EF31E8C019D01F5E0000F03
:10210000111F221F331FFA95D1F74C015D01EBE13E
:10211000B694A79497948794EA95D1F7802A912A48
:10212000A22AB32A8C0C9D1CAE1CBF1C93018201F9
:10213000F2E03695279517950795FA95D1F7730133
:102140006201EEE1CC0CDD1CEE1CFF1CEA95D1F720
:10215000C02AD12AE22AF32AC982DA82EB82FC82DF
:1021600009891A892B893C8949AC5AAC6BAC7CAC87
:102170000425152526253725CD8CDE8CEF8CF8A07F
:102180000C251D252E253F2529964CAC5DAC6EAC4B
:102190007FAC299704251525262537256801790167
:1021A000CC0CDD1CEE1CFF1CC11CC98ADA8AEB8A30
:1021B000FC8A49805A806B807C804426552666269E
:1021C0007726482259226A227B2293018201042722
:1021D00015272627372726013701E7E64E1AE6E8B6
:1021E0005E0AEDE76E0AE5EA7E0ACD80DE80EF80CA
:1021F000F8844C0C5D1C6E1C7F1C73016201C00EC8
:10220000D11EE21EF31ECDA2DEA2EFA2F8A685012A
:102210007401F5E0EE0CFF1C001F111FFA95D1F7B9
:10222000240135012BE176946794579447942A95BD
:10223000D1F7E428F528062917294DA05EA06FA044
:1022400078A44E0C5F1C601E711E4DA25EA26FA290
:1022500078A62C013D0132E0769467945794479418
:102260003A95D1F7EEE1880F991FAA1FBB1FEA9597
:10227000D1F784299529A629B72949A45AA46BA482
:102280007CA42196CCACDDACEEACFFAC21974C2409
:102290005D246E247F24E9A0FAA00BA11CA14E248A
:1022A0005F24602671262D960CAD1DAD2EAD3FAD81
:1022B0002D97402651266226732673016201CC0CAD
:1022C000DD1CEE1CFF1CC11CCD82DE82EF82F88675
:1022D00049805A806B807C80482659266A267B2656
:1022E000482059206A207B2009811A812B813C815A
:1022F000042515252625372526013701E7E64E1A40
:10230000E6E85E0AEDE76E0AE5EA7E0A440D551D31
:10231000661D771D400F511F621F731F4DA05EA0E9
:102320006FA078A4F5E0440C551C661C771CFA9548
:10233000D1F70DA11EA12FA138A5EBE13695279568
:1023400017950795EA95D1F7402A512A622A732AF0
:10235000440D551D661D771D24013501F2E076946C
:10236000679457944794FA95D1F7750164011EE17B
:10237000CC0CDD1CEE1CFF1C1A95D1F7C428D52807
:10238000E628F728AB96CCAEDDAEEEAEFFAEAB974F
:1023900089AC9AACABACBCACEDA4FEA40FA518A95B
:1023A0008E249F24A026B12609A91AA92BA93CA9ED
:1023B00080269126A226B3264D845E846F84788879
:1023C00084249524A624B72475016401CC0CDD1C5B
:1023D000EE1CFF1CC11CC9A6DAA6EBA6FCA6AB9698
:1023E0008CAC9DACAEACBFACAB9788269926AA2628
:1023F000BB26EDA0FEA00FA118A58E209F20A02235
:10240000B12288269926AA26BB2649A45AA46BA4E1
:102410007CA407E6401A06E8500A0DE7600A05EAC0
:10242000700AC980DA80EB80FC804C0C5D1C6E1C4D
:102430007F1C840C951CA61CB71C2A013B0105E0DF
:10244000440C551C661C771C0A95D1F76A017B0168
:102450002BE1F694E794D794C7942A95D1F74C28AA
:102460005D286E287F28480C591C6A1C7B1C8DA097
:102470009EA0AFA0B8A432E0B694A7949794879496
:102480003A95D1F7CDA0DEA0EFA0F8A4EEE1CC0CF8
:10249000DD1CEE1CFF1CEA95D1F7C828D928EA28D4
:1024A000FB2821968CAC9DACAEACBFAC21970D89BE
:1024B0001E892F89388D80269126A226B326619603
:1024C0000CAD1DAD2EAD3FAD619780269126A226A5
:1024D000B32609891A892B893C8980269126A22650
:1024E000B32695018401000F111F221F331F011D08
:1024F00009831A832B833C83AB968CAC9DACAEAC2A
:10250000BFACAB978C249D24AE24BF248426952693
:10251000A626B7260F55144126423149800F911F38
:10252000A21FB31F880D991DAA1DBB1D5301420197
:10253000F5E0880C991CAA1CBB1CFA95D1F79301F5
:102540008201EBE13695279517950795EA95D1F726
:10255000802A912AA22AB32A880D991DAA1DBB1D83
:102560004A015B01F2E0B694A79497948794FA9598
:10257000D1F78A019B014EE1000F111F221F331F6B
:102580004A95D1F7082919292A293B290DAB1EABF9
:102590002FAB38AF4DA55EA56FA578A9898C9A8C15
:1025A000AB8CBC8C482559256A257B2509851A8565
:1025B0002B853C8540275127622773278D809E807D
:1025C000AF80B884482559256A257B258A019B015F
:1025D000000F111F221F331F011D0DA31EA32FA3C8
:1025E00038A78DA89EA8AFA8B8AC8C249D24AE2493
:1025F000BF2484249524A624B724B901A8014F55EB
:10260000544166427149AB960CAD1DAD2EAD3FAD48
:10261000AB97400F511F621F731F840E951EA61E9D
:10262000B71EAC01BD01E5E0440F551F661F771FC3
:10263000EA95D1F78C019D01FBE136952795179519
:102640000795FA95D1F7402B512B622B732B840EF3
:10265000951EA61EB71EB301A20112E076956795DE
:10266000579547951A95D1F793018201EEE1000F36
:10267000111F221F331FEA95D1F7042B152B262B90
:10268000372B0DA71EA72FA738AB4D895E896F8901
:10269000788D25964CAC5DAC6EAC7FAC259744250F
:1026A00055256625772529960CAD1DAD2EAD3FAD80
:1026B0002997402751276227732749A45AA46BA45E
:1026C0007CA444255525662577258A019B01000FAA
:1026D000111F221F331F011D09AF1AAF2BAF3CAFD3
:1026E0004DA95EA96FA978AD4DA45EA46FA478A88A
:1026F0004425552566257725482759276A277B27AE
:10270000280139010FE5401A04E1500A06E2600A87
:1027100001E9700AC40CD51CE61CF71CC40ED51EBA
:10272000E61EF71E24013501F5E0440C551C661C1D
:10273000771CFA95D1F7B501A4011BE17695679551
:10274000579547951A95D1F7442A552A662A772A2C
:10275000C40CD51CE61CF71CAC01BD0102E076954B
:102760006795579547950A95D1F78C019D018EE1A4
:10277000000F111F221F331F8A95D1F7042B152B31
:10278000262B372B898D9A8DAB8DBC8D4D8D5E8D13
:102790006F8D78A184279527A627B7272D964CAC57
:1027A0005DAC6EAC7FAC2D9784259525A625B7250D
:1027B00049815A816B817C8184279527A627B72779
:1027C0002C013D01440C551C661C771C411C2196B4
:1027D0004CAE5DAE6EAE7FAE21978DA59EA5AFA52A
:1027E000B8A980279127A227B32788259925AA254C
:1027F000BB25B301A2014F555441664271494DA812
:102800005EA86FA878AC440D551D661D771D480F56
:10281000591F6A1F7B1FD701C601E5E0880F991F6A
:10282000AA1FBB1FEA95D1F726013701FBE1769479
:10283000679457944794FA95D1F784299529A62946
:10284000B729480F591F6A1F7B1FD501C401E2E059
:10285000B695A79597958795EA95D1F72401350107
:10286000FEE1440C551C661C771CFA95D1F7482AEA
:10287000592A6A2A7B2A4D8A5E8A6F8A788E259623
:102880008CAD9DADAEADBFAD259769A07AA08BA0F4
:102890009CA086259725A825B9258D849E84AF8484
:1028A000B88888259925AA25BB254DA05EA06FA0D4
:1028B00078A484259525A625B7253C014D01660CF5
:1028C000771C881C991C611C6DAA7EAA8FAA98AEE1
:1028D0008D899E89AF89B88D80279127A227B3273C
:1028E0008C259D25AE25BF2523013401EFE54E1A29
:1028F000E4E15E0AE6E26E0AE1E97E0A8DA49EA4A6
:10290000AFA4B8A8480C591C6A1C7B1C840D951DEB
:10291000A61DB71D4A015B01E5E0880C991CAA1CA5
:10292000BB1CEA95D1F72A013B01FBE17694679441
:1029300057944794FA95D1F784289528A628B72864
:1029400024013501480E591E6A1E7B1ED701C6019F
:10295000E2E0B695A79597958795EA95D1F7460158
:102960005701FEE1880C991CAA1CBB1CFA95D1F7F3
:10297000882A992AAA2ABB2A898E9A8EAB8EBC8E67
:102980008D8D9E8DAF8DB8A1A9A8BAA8CBA8DCA8C3
:102990008A259B25AC25BD25C988DA88EB88FC886B
:1029A0008C259D25AE25BF2589AC9AACABACBCACC3
:1029B00088259925AA25BB255C016D01AA0CBB1CA5
:1029C000CC1CDD1CA11CADA6BEA6CFA6D8AA8D88A6
:1029D0009E88AF88B88CC98CDA8CEB8CFC8C8C24EC
:1029E0009D24AE24BF2484269526A626B7268DA531
:1029F0009EA5AFA5B8A98F559441A642B149800FB5
:102A0000911FA21FB31F880D991DAA1DBB1D730125
:102A1000620115E0CC0CDD1CEE1CFF1C1A95D1F7F1
:102A200093018201EBE13695279517950795EA9575
:102A3000D1F7C02AD12AE22AF32A8C0D9D1DAE1DA2
:102A4000BF1D8A019B01F2E03695279517950795E2
:102A5000FA95D1F76A017B014EE1CC0CDD1CEE1C2E
:102A6000FF1C4A95D1F7C02AD12AE22AF32A49A1AC
:102A70005AA16BA17CA161960CAD1DAD2EAD3FADF1
:102A8000619740275127622773278D809E80AF80F2
:102A9000B884482559256A257B2521960CAD1DADA6
:102AA0002EAD3FAD219740275127622773274A015A
:102AB0005B01880C991CAA1CBB1C811C25968CAE42
:102AC0009DAEAEAEBFAE2597098D1A8D2B8D3C8D78
:102AD0000C251D252E253F250425152526253725C2
:102AE0004FE5841A44E1940A46E2A40A41E9B40A93
:102AF0004D895E896F89788D840E951EA61EB71E3E
:102B0000800E911EA21EB31EAC01BD01E5E0440F74
:102B1000551F661F771FEA95D1F78C019D01FBE1D8
:102B20003695279517950795FA95D1F7402B512B98
:102B3000622B732B840E951EA61EB71EB301A20135
:102B400012E076956795579547951A95D1F79301B9
:102B50008201EEE1000F111F221F331FEA95D1F70A
:102B6000042B152B262B372B0D8F1E8F2F8F38A361
:102B700049A95AA96BA97CA949845A846B847C848D
:102B8000442555256625772509A51AA52BA53CA51D
:102B900040275127622773274DA85EA86FA878ACFD
:102BA00044255525662577258A019B01000F111FB5
:102BB000221F331F011D0D8B1E8B2F8B388F0D8D08
:102BC0001E8D2F8D38A10C251D252E253F2508276C
:102BD00019272A273B274D895E896F89788D4F55A4
:102BE000544166427149498C5A8C6B8C7C8C440DE3
:102BF000551D661D771D400F511F621F731F240155
:102C00003501F5E0440C551C661C771CFA95D1F78C
:102C100095018401EBE13695279517950795EA957F
:102C2000D1F70429152926293729040F151F261F36
:102C3000371FAC01BD01F2E0769567955795479532
:102C4000FA95D1F72C013D01AEE1440C551C661CF0
:102C5000771CAA95D1F7442A552A662A772A6196C5
:102C60008CAD9DADAEADBFAD619729964CAD5DAD60
:102C70006EAD7FAD299784279527A627B727498171
:102C80005A816B817C8184279527A627B7274DA57C
:102C90005EA56FA578A984279527A627B727AC013D
:102CA000BD01440F551F661F771F411D498F5A8F65
:102CB0006B8F7C8F8D8D9E8DAF8DB8A184259525D2
:102CC000A625B72588259925AA25BB254F5554410A
:102CD000664271494C0D5D1D6E1D7F1D480F591FC9
:102CE0006A1F7B1FD901C801E5E0880F991FAA1F41
:102CF000BB1FEA95D1F768017901FBE1F694E794EF
:102D0000D794C794FA95D1F78C299D29AE29BF296C
:102D1000480F591F6A1F7B1FD501C401E2E0B69519
:102D2000A79597958795EA95D1F775016401FEE11E
:102D3000CC0CDD1CEE1CFF1CFA95D1F7C82AD92A51
:102D4000EA2AFB2AC9A2DAA2EBA2FCA289859A850B
:102D5000AB85BC852D968CAC9DACAEACBFAC2D9735
:102D600088259925AA25BB25ADA0BEA0CFA0D8A4B3
:102D70008A259B25AC25BD252596CCACDDACEEACDB
:102D8000FFAC25978C259D25AE25BF254C015D0107
:102D9000880C991CAA1CBB1C811C89869A86AB8650
:102DA000BC86C9A0DAA0EBA0FCA0C424D524E624EC
:102DB000F724C026D126E226F326D501C4018F557B
:102DC0009441A642B1498D8C9E8CAF8CB8A0880DE1
:102DD000991DAA1DBB1D8C0D9D1DAE1DBF1D4A0159
:102DE0005B01E5E0880C991CAA1CBB1CEA95D1F795
:102DF0006A017B01FBE1F694E794D794C794FA95B6
:102E0000D1F7C828D928EA28FB28C80ED91EEA1EFF
:102E1000FB1ED901C801E2E0B695A7959795879565
:102E2000EA95D1F748015901FEE1880C991CAA1CCA
:102E3000BB1CFA95D1F7882A992AAA2ABB2A8D8E1B
:102E40009E8EAF8EB8A229968CAD9DADAEADBFADB6
:102E500029970D851E852F85388980279127A227E0
:102E6000B32789AC9AACABACBCAC88259925AA2514
:102E7000BB250D891E892F89388D80279127A22790
:102E8000B3274C015D01880C991CAA1CBB1C811C3A
:102E900029968CAE9DAEAEAEBFAE299789A09AA002
:102EA000ABA0BCA00D8D1E8D2F8D38A18026912644
:102EB000A226B32684269526A626B72629968CAD6B
:102EC0009DADAEADBFAD29978F559441A642B14996
:102ED000840D951DA61DB71D880D991DAA1DBB1D2E
:102EE00097018601E5E0000F111F221F331FEA95AD
:102EF000D1F746015701FBE1B694A79497948794C4
:102F0000FA95D1F7082919292A293B29800F911F01
:102F1000A21FB31F8A019B01E2E036952795179502
:102F20000795EA95D1F7FEE1440F551F661F771FFD
:102F3000FA95D1F7402B512B622B732B2D960CADAC
:102F40001DAD2EAD3FAD2D9749885A886B887C8882
:102F5000042515252625372521966CAC7DAC8EAC35
:102F60009FAC21970625172528253925898C9A8C11
:102F7000AB8CBC8C082519252A253B252801390155
:102F8000440C551C661C771C411C2D964CAE5DAE46
:102F90006EAE7FAE2D974D8C5E8C6F8C78A04426E4
:102FA0005526662677264C245D246E247F242D9694
:102FB0008CAC9DACAEACBFAC2D970FE5801A04E194
:102FC000900A06E2A00A01E9B00A09A11AA12BA100
:102FD0003CA1800E911EA21EB31E840C951CA61C43
:102FE000B71C2C013D0115E0440C551C661C771CD8
:102FF0001A95D1F78C019D01EBE136952795179530
:103000000795EA95D1F7402A512A622A732A840C3F
:10301000951CA61CB71C97018601F2E036952795F2
:1030200017950795FA95D1F726013701EEE1440C83
:10303000551C661C771CEA95D1F7402A512A622A52
:10304000732A49A25AA26BA27CA20D851E852F85E8
:103050003889CD80DE80EF80F8840C251D252E2553
:103060003F254DA85EA86FA878AC04251525262518
:103070003725C984DA84EB84FC840C251D252E2594
:103080003F2528013901440C551C661C771C411C46
:103090004D865E866F86788AC9A0DAA0EBA0FCA078
:1030A000C426D526E626F726C826D926EA26FB26F4
:1030B000930182010F551441264231494D8C5E8C9B
:1030C0006F8C78A0040D151D261D371D0C0D1D1DC0
:1030D0002E1D3F1D75016401F5E0CC0CDD1CEE1CBE
:1030E000FF1CFA95D1F724013501EBE17694679442
:1030F00057944794EA95D1F7C428D528E628F728AD
:103100000C0D1D1D2E1D3F1D6C017D01F2E0F6947E
:10311000E794D794C794FA95D1F72C013D01AEE11D
:10312000440C551C661C771CAA95D1F74C285D28C9
:103130006E287F2849AA5AAA6BAA7CAA89899A89EB
:10314000AB89BC89C9A4DAA4EBA4FCA48C259D2579
:10315000AE25BF254DA45EA46FA478A8842595252F
:10316000A625B7252996CCACDDACEEACFFAC2997F3
:103170008C259D25AE25BF252C013D01440C551CF9
:10318000661C771C411C498A5A8A6B8A7C8A49A032
:103190005AA06BA07CA0C9A8DAA8EBA8FCA84C2474
:1031A0005D246E247F24482459246A247B24C98802
:1031B000DA88EB88FC888FE5C81A84E1D80A86E2B1
:1031C000E80A81E9F80A4C0D5D1D6E1D7F1D440D56
:1031D000551D661D771DD901C801E5E0880F991FAF
:1031E000AA1FBB1FEA95D1F768017901FBE1F694AC
:1031F000E794D794C794FA95D1F78C299D29AE29E5
:10320000BF29480F591F6A1F7B1FD501C401E2E087
:10321000B695A79597958795EA95D1F7FEE1880C25
:10322000991CAA1CBB1CFA95D1F7882A992AAA2AAC
:10323000BB2A4D805E806F807884C980DA80EB8005
:10324000FC804C245D246E247F2425968CAD9DAD9E
:10325000AEADBFAD2597482659266A267B262D960A
:10326000CCACDDACEEACFFAC2D974C245D246E24D1
:103270007F24D301C201880F991FAA1FBB1F811D84
:103280008D8F9E8FAF8FB8A349A85AA86BA87CA832
:10329000482459246A247B2440265126622673261A
:1032A0006C017D019FE5C91A94E1D90A96E2E90A09
:1032B00091E9F90A89A19AA1ABA1BCA1C80ED91EB6
:1032C000EA1EFB1EC40CD51CE61CF71C2A013B01A0
:1032D000A5E0440C551C661C771CAA95D1F7DB01B0
:1032E000CA01EBE1B695A79597958795EA95D1F731
:1032F00084299529A629B729C80ED91EEA1EFB1EC6
:10330000D901C801F2E0B695A79597958795FA95EA
:10331000D1F7280139011EE1440C551C661C771CAD
:103320001A95D1F7482A592A6A2A7B2A4D825E8249
:103330006F82788689A59AA5ABA5BCA50DA11EA113
:103340002FA138A580279127A227B3274D885E8813
:103350006F88788C84259525A625B7250D851E8533
:103360002F85388980279127A227B3272C013D017B
:10337000440C551C661C771C411C49A65AA66BA61A
:103380007CA64D805E806F807884482459246A240E
:103390007B24442655266626772689A59AA5ABA5C3
:1033A000BCA58F559441A642B14909A91AA92BA9D8
:1033B0003CA9800F911FA21FB31F840D951DA61D50
:1033C000B71D97018601E5E0000F111F221F331F73
:1033D000EA95D1F726013701FBE17694679457947B
:1033E0004794FA95D1F7402A512A622A732A480E47
:1033F000591E6A1E7B1EDB01CA0112E0B695A79515
:10340000979587951A95D1F78A019B014EE1000F98
:10341000111F221F331F4A95D1F7082B192B2A2B76
:103420003B2B09AB1AAB2BAB3CAB09811A812B812F
:103430003C8149AD5AAD6BAD7CAD042715272627DD
:103440003727698D7A8D8B8D9C8D06271727282726
:10345000392789899A89AB89BC89082719272A279E
:103460003B27B901A801440F551F661F771F411D57
:1034700049A35AA36BA37CA38D819E81AF81B8859C
:1034800009A91AA92BA93CA980279127A227B3270C
:103490008C259D25AE25BF258A019B010F55144122
:1034A00026423149800E911EA21EB31E880D991D21
:1034B000AA1DBB1DB301A201E5E0440F551F661F05
:1034C000771FEA95D1F793018201FBE136952795A5
:1034D00017950795FA95D1F7402B512B622B732B3B
:1034E000480F591F6A1F7B1FD701C60112E0B6950E
:1034F000A795979587951A95D1F797018601EEE1E3
:10350000000F111F221F331FEA95D1F7082B192B2B
:103510002A2B3B2B8DA19EA1AFA1B8A521968CACE7
:103520009DACAEACBFAC219788259925AA25BB25BB
:10353000A984BA84CB84DC848A259B25AC25BD254F
:10354000CD8CDE8CEF8CF8A08C259D25AE25BF257B
:103550004C015D01880C991CAA1CBB1C811C8DA20E
:103560009EA2AFA2B8A689A89AA8ABA8BCA880269C
:103570009126A226B32684249524A624B724CDA080
:10358000DEA0EFA0F8A48FE5C81A84E1D80A86E28D
:10359000E80A81E9F80A8D819E81AF81B885C80E5D
:1035A000D91EEA1EFB1EC80CD91CEA1CFB1C4A01D2
:1035B0005B01F5E0880C991CAA1CBB1CFA95D1F79D
:1035C000DB01CA01EBE1B695A79597958795EA953A
:1035D000D1F788299929AA29BB298C0D9D1DAE1DDB
:1035E000BF1D73016201F2E0F694E794D794C7948B
:1035F000FA95D1F753014201EEE1880C991CAA1CFF
:10360000BB1CEA95D1F78C289D28AE28BF2889825B
:103610009A82AB82BC82C9ACDAACEBACFCAC4DA8F4
:103620005EA86FA878ACC424D524E624F724299694
:103630006CAC7DAC8EAC9FAC2997C624D724E82413
:10364000F92489A49AA4ABA4BCA4C824D924EA244C
:10365000FB2426013701440C551C661C771C411CB9
:1036600049AE5AAE6BAE7CAE89809A80AB80BC808E
:1036700080269126A226B32684269526A626B7263E
:1036800073016201EFE5CE1AE4E1DE0AE6E2EE0A3A
:10369000E1E9FE0A49A85AA86BA87CA8C40CD51C6D
:1036A000E61CF71CC80CD91CEA1CFB1C4C015D0174
:1036B000F5E0880C991CAA1CBB1CFA95D1F71C01DB
:1036C0002D01EBE15694479437942794EA95D1F76E
:1036D00082289328A428B5288C0C9D1CAE1CBF1CE6
:1036E0006A017B01F2E0F694E794D794C794FA95C7
:1036F000D1F72A013B014EE1440C551C661C771C96
:103700004A95D1F74C285D286E287F284D825E822D
:103710006F82788621964CAD5DAD6EAD7FAD219701
:10372000CDA4DEA4EFA4F8A84C255D256E257F2549
:103730002D964CAC5DAC6EAC7FAC2D9744255525D9
:1037400066257725C9A0DAA0EBA0FCA04C255D2555
:103750006E257F252A013B01440C551C661C771CF5
:10376000411C21964CAE5DAE6EAE7FAE2197498175
:103770005A816B817C81CD80DE80EF80F8844C257E
:103780005D256E257F25482759276A277B277301EA
:103790006201EFE5CE1AE4E1DE0AE6E2EE0AE1E9D3
:1037A000FE0AC00ED11EE21EF31E4C0D5D1D6E1DE5
:1037B0007F1D75016401E5E0CC0CDD1CEE1CFF1CD7
:1037C000EA95D1F795018401FBE136952795179588
:1037D0000795FA95D1F7C02AD12AE22AF32AC40E16
:1037E000D51EE61EF71EAC01BD0112E07695679569
:1037F000579547951A95D1F70EE1880F991FAA1F83
:10380000BB1F0A95D1F7842B952BA62BB72B4DA95F
:103810005EA96FA978AD25964CAC5DAC6EAC7FAC63
:10382000259744255525662577250D851E852F85E9
:10383000388940275127622773274DA05EA06FA0CB
:1038400078A444255525662577258A019B01000F1C
:10385000111F221F331F011D0DAB1EAB2FAB38AF45
:1038600014012501282A392A4A2A5B2A2D813E8102
:103870004F8158852222332244225522B501A401CA
:10388000482359236A237B23242A352A462A572A88
:103890004DA95EA96FA978AD44525344644E704758
:1038A00009811A812B813C81400F511F621F731FB8
:1038B000420D531D641D751D97018601E5E0000F43
:1038C000111F221F331FEA95D1F726013701FBE1B3
:1038D0007694679457944794FA95D1F7042915295B
:1038E00026293729040F151F261F371FB501A401EC
:1038F000E2E07695679557954795EA95D1F72401CB
:103900003501FEE1440C551C661C771CFA95D1F775
:10391000442A552A662A772A49825A826B827C82F7
:103920004DA55EA56FA578A96D887E888F88988C37
:10393000462557256825792589889A88AB88BC88CB
:10394000482559256A257B2549AC5AAC6BAC7CAC23
:1039500044255525662577253A014B01660C771CD1
:10396000881C991C611C6DA67EA68FA698AA498109
:103970005A816B817C814C295D296E297F294823DE
:1039800059236A237B2389809A80AB80BC808C205A
:103990009D20AE20BF20842A952AA62AB72A4DA4AE
:1039A0005EA46FA478A844E2441A43E4540A44EEA7
:1039B000640A40E7740A4D815E816F817885440E08
:1039C000551E661E771E840C951CA61CB71CB901DB
:1039D000A801E5E0440F551F661F771FEA95D1F750
:1039E00028013901FBE17694679457944794FA953E
:1039F000D1F74429552966297729840E951EA61EDC
:103A0000B71EB701A601E2E07695679557954795F1
:103A1000EA95D1F726013701FEE1440C551C661CDE
:103A2000771CFA95D1F7442A552A662A772A2596D3
:103A30004CAD5DAD6EAD7FAD2597C98CDA8CEB8C4E
:103A4000FC8C4C255D256E257F25CD8CDE8CEF8C86
:103A5000F8A04C255D256E257F252196CCACDDACEC
:103A6000EEACFFAC21974C255D256E257F256A01C4
:103A70007B01CC0CDD1CEE1CFF1CC11C2596CCAEC2
:103A8000DDAEEEAEFFAE259768017901C428D528DA
:103A9000E628F72849815A816B817C81C422D5228E
:103AA000E622F722B901A801442155216621772198
:103AB0004C295D296E297F292596CCACDDACEEAC76
:103AC000FFAC2597E4E2CE1AE3E4DE0AE4EEEE0A68
:103AD000E0E7FE0A8C0D9D1DAE1DBF1D840F951FD6
:103AE000A61FB71F7501640145E0CC0CDD1CEE1C60
:103AF000FF1C4A95D1F7B501A401EBE176956795D6
:103B000057954795EA95D1F7C42AD52AE62AF72A88
:103B10008C0D9D1DAE1DBF1DB901A801F2E076956B
:103B2000679557954795FA95D1F7680179011EE198
:103B3000CC0CDD1CEE1CFF1C1A95D1F7C42AD52A2B
:103B4000E62AF72ACD82DE82EF82F8860D891E8969
:103B50002F89388D49855A856B857C8504271527E3
:103B600026273727C9A4DAA4EBA4FCA40C251D251D
:103B70002E253F254DA95EA96FA978AD04271527ED
:103B80002627372768017901CC0CDD1CEE1CFF1CB1
:103B9000C11CCD8ADE8AEF8AF88ECD80DE80EF8070
:103BA000F884C828D928EA28FB28C420D520E62094
:103BB000F7204D815E816F817885482159216A21E6
:103BC0007B21C42AD52AE62AF72A4D895E896F8986
:103BD000788D44525344644E704709811A812B8179
:103BE0003C81400F511F621F731F4C0D5D1D6E1DE8
:103BF0007F1D8C019D01E5E0000F111F221F331F67
:103C0000EA95D1F76C017D01FBE1F694E794D79436
:103C1000C794FA95D1F70C291D292E293F29400F69
:103C2000511F621F731F95018401E2E036952795AD
:103C300017950795EA95D1F775016401FEE1CC0C63
:103C4000DD1CEE1CFF1CFA95D1F7C02AD12AE22A0E
:103C5000F32AC982DA82EB82FC82098D1A8D2B8DC0
:103C60003C8D29968CAC9DACAEACBFAC2997082599
:103C700019252A253B25A9A0BAA0CBA0DCA00A259E
:103C80001B252C253D25CDA4DEA4EFA4F8A80C25EA
:103C90001D252E253F2548015901880C991CAA1C79
:103CA000BB1C811C898E9A8EAB8EBC8E09811A81B9
:103CB0002B813C81082B192B2A2B3B2BAD80BE80FE
:103CC000CF80D8840A211B212C213D21C980DA8094
:103CD000EB80FC80C822D922EA22FB220C291D2974
:103CE0002E293F29C98CDA8CEB8CFC8CE4E2CE1AAD
:103CF000E3E4DE0AE4EEEE0AE0E7FE0AC40CD51CBB
:103D0000E61CF71CC00ED11EE21EF31E4A015B0129
:103D100015E0880C991CAA1CBB1C1A95D1F72A0126
:103D20003B010BE176946794579447940A95D1F739
:103D300084289528A628B728C80CD91CEA1CFB1C87
:103D40008C019D01E2E03695279517950795EA9538
:103D5000D1F72C013D01FEE1440C551C661C771C7B
:103D6000FA95D1F7402A512A622A732A89859A85C1
:103D7000AB85BC852D968CAC9DACAEACBFAC2D9705
:103D800088259925AA25BB250DA11EA12FA138A5FF
:103D900080279127A227B32725968CAC9DACAEAC8B
:103DA000BFAC259788259925AA25BB258C019D01A7
:103DB000000F111F221F331F011D09AB1AAB2BABC4
:103DC0003CAB4A015B0184289528A628B728898145
:103DD0009A81AB81BC8188229922AA22BB228A01C6
:103DE0009B010421152126213721802A912AA22A0C
:103DF000B32A09A91AA92BA93CA904521344244E99
:103E000030478D819E81AF81B885080F191F2A1F09
:103E10003B1F080D191D2A1D3B1DD701C601E5E0FA
:103E2000880F991FAA1FBB1FEA95D1F746015701BA
:103E3000FBE1B694A79497948794FA95D1F78829D3
:103E40009929AA29BB29080F191F2A1F3B1FDB012B
:103E5000CA01E2E0B695A79597958795EA95D1F7BF
:103E60004A015B01FEE1880C991CAA1CBB1CFA9557
:103E7000D1F7882A992AAA2ABB2A8D829E82AF82EC
:103E8000B88629968CAD9DADAEADBFAD29974D8559
:103E90005E856F85788984279527A627B72789AC03
:103EA0009AACABACBCAC88259925AA25BB254D891D
:103EB0005E896F89788D84279527A627B7274C01BF
:103EC0005D01880C991CAA1CBB1C811C29968CAE18
:103ED0009DAEAEAEBFAE29978D819E81AF81B88574
:103EE0008C299D29AE29BF2984219521A621B7219E
:103EF0008D809E80AF80B8848C209D20AE20BF2016
:103F000088299929AA29BB2929968CAC9DACAEACED
:103F1000BFAC299744E2841A43E4940A44EEA40A0D
:103F200040E7B40A49815A816B817C81840E951ED9
:103F3000A61EB71E880D991DAA1DBB1DB901A8019B
:103F4000E5E0440F551F661F771FEA95D1F748013A
:103F50005901FBE1B694A79497948794FA95D1F709
:103F6000482959296A297B294A015B01880E991E33
:103F7000AA1EBB1ED701C60142E0B695A79597952C
:103F800087954A95D1F7B701A601EEE1440F551F79
:103F9000661F771FEA95D1F7482B592B6A2B7B2B8D
:103FA0002D968CAD9DADAEADBFAD2D97C988DA888D
:103FB000EB88FC888C259D25AE25BF252196CCACB1
:103FC000DDACEEACFFAC21978C259D25AE25BF2541
:103FD000C98CDA8CEB8CFC8C8C259D25AE25BF25FD
:103FE0006C017D01CC0CDD1CEE1CFF1CC11C2D9650
:103FF000CCAEDDAEEEAEFFAE2D9768017901C42ADE
:10400000D52AE62AF72A8D819E81AF81B885C822FC
:10401000D922EA22FB22D901C80184239523A623B1
:10402000B723C82AD92AEA2AFB2A2D968CAD9DAD42
:10403000AEADBFAD2D9784529344A44EB047840DCE
:10404000951DA61DB71D8C0D9D1DAE1DBF1D7501B7
:104050006401F5E0CC0CDD1CEE1CFF1CFA95D1F7D9
:1040600024013501EBE17694679457944794EA95DF
:10407000D1F7C428D528E628F7288C0D9D1DAE1D44
:10408000BF1D68017901F2E0F694E794D794C794D4
:10409000FA95D1F7280139011EE1440C551C661C24
:1040A000771C1A95D1F74C285D286E287F28498205
:1040B0005A826B827C820D851E852F853889CD8C36
:1040C000DE8CEF8CF8A00C251D252E253F254DA854
:1040D0005EA86FA878AC0425152526253725C9A824
:1040E000DAA8EBA8FCA80C251D252E253F252801C4
:1040F0003901440C551C661C771C411C4D865E869C
:104100006F86788A49805A806B807C80482859283D
:104110006A287B284422552266227722C980DA80C9
:10412000EB80FC80C820D920EA20FB204C285D28A9
:104130006E287F28CD84DE84EF84F88804E2C01ADC
:1041400003E4D00A04EEE00A00E7F00A0D811E81C4
:104150002F813885C00ED11EE21EF31EC40CD51C63
:10416000E61CF71C8C019D01E5E0000F111F221FCA
:10417000331FEA95D1F72C013D01FBE1769467945A
:1041800057944794FA95D1F7402A512A622A732A04
:104190004C0C5D1C6E1C7F1C95018401E2E0369581
:1041A000279517950795EA95D1F775016401FEE10A
:1041B000CC0CDD1CEE1CFF1CFA95D1F7C02AD12ACD
:1041C000E22AF32ACD82DE82EF82F88609891A89F3
:1041D0002B893C8989A49AA4ABA4BCA408251925E1
:1041E0002A253B25ADA4BEA4CFA4D8A80A251B250B
:1041F0002C253D252996CCACDDACEEACFFAC299747
:104200000C251D252E253F2548015901880C991C98
:10421000AA1CBB1C811C898A9A8AAB8ABC8A0D8124
:104220001E812F813885082B192B2A2B3B2BA98027
:10423000BA80CB80DC800A211B212C213D21CD803E
:10424000DE80EF80F884C822D922EA22FB220C29E2
:104250001D292E293F29C988DA88EB88FC88E4E2E9
:10426000CE1AE3E4DE0AE4EEEE0AE0E7FE0AC40E4C
:10427000D51EE61EF71EC00ED11EE21EF31E530110
:10428000420115E0880C991CAA1CBB1C1A95D1F799
:10429000B301A2010BE176956795579547950A956D
:1042A000D1F7842A952AA62AB72AC80CD91CEA1C59
:1042B000FB1CAC01BD0122E07695679557954795AB
:1042C0002A95D1F74C015D013EE1880C991CAA1C8E
:1042D000BB1C3A95D1F7842A952AA62AB72A898643
:1042E0009A86AB86BC860D8D1E8D2F8D38A149A177
:1042F0005AA16BA17CA104271527262737272596CD
:104300006CAD7DAD8EAD9FAD25970627172728276D
:1043100039272D968CAD9DADAEADBFAD2D9708273D
:1043200019272A273B2748015901880C991CAA1CE8
:10433000BB1C811C8D8E9E8EAF8EB8A249855A857E
:104340006B857C8544295529662977290D811E8135
:104350002F813885402351236223732309851A85D1
:104360002B853C850421152126213721402B512BFB
:10437000622B732B9501840104521344244E304761
:1043800089819A81AB81BC81080F191F2A1F3B1FAD
:10439000040F151F261F371FD701C60145E0880FE0
:1043A000991FAA1FBB1F4A95D1F7460157015BE130
:1043B000B694A794979487945A95D1F78829992908
:1043C000AA29BB29080F191F2A1F3B1FD301C201AD
:1043D00062E0B695A795979587956A95D1F7B30151
:1043E000A201EEE1440F551F661F771FEA95D1F732
:1043F000482B592B6A2B7B2B89A59AA5ABA5BCA56D
:104400004DA05EA06FA078A484259525A625B7258C
:104410006D887E888F88988C86259725A825B92554
:104420008D849E84AF84B88888259925AA25BB25CC
:104430002C013D01440C551C661C771C411C49A6EF
:104440005AA66BA67CA626013701442A552A662A5D
:10445000772A89849A84AB84BC84482059206A20B6
:104460007B204601570184229522A622B7224828A4
:1044700059286A287B2889A49AA4ABA4BCA484E206
:10448000881A83E4980A84EEA80A80E7B80A8D8126
:104490009E81AF81B885880E991EAA1EBB1E840C12
:1044A000951CA61CB71C28013901F5E0440C551CCD
:1044B000661C771CFA95D1F7D901C801EBE1B695D6
:1044C000A79597958795EA95D1F784299529A629E7
:1044D000B729880E991EAA1EBB1ED701C601F2E09D
:1044E000B695A79597958795FA95D1F72601370147
:1044F000EEE1440C551C661C771CEA95D1F7482A5E
:10450000592A6A2A7B2A49825A826B827C8289A133
:104510009AA1ABA1BCA1C9ACDAACEBACFCAC8C25CC
:104520009D25AE25BF25498C5A8C6B8C7C8C8425AF
:104530009525A625B725C988DA88EB88FC888C25BF
:104540009D25AE25BF252C013D01440C551C661C44
:10455000771C411C49A25AA26BA27CA2C980DA80B6
:10456000EB80FC80C02AD12AE22AF32AC422D52279
:10457000E622F72289819A81AB81BC818023912335
:10458000A223B323C82AD92AEA2AFB2AD301C201CB
:1045900084529344A44EB04749845A846B847C84EB
:1045A000840D951DA61DB71D8C0D9D1DAE1DBF1D37
:1045B00075016401F5E0CC0CDD1CEE1CFF1CFA95C6
:1045C000D1F724013501EBE1769467945794479431
:1045D000EA95D1F7C428D528E628F7288C0D9D1D2B
:1045E000AE1DBF1D68017901F2E0F694E794D794FF
:1045F000C794FA95D1F7280139011EE1440C551CE6
:10460000661C771C1A95D1F74C285D286E287F28E8
:104610004D825E826F8278860DA11EA12FA138A5E2
:104620002196CCACDDACEEACFFAC21970C251D2562
:104630002E253F2549A85AA86BA87CA80425152536
:1046400026253725CD8CDE8CEF8CF8A00C251D257A
:104650002E253F2528013901440C551C661C771C6A
:10466000411C4DA25EA26FA278A60D811E812F81F2
:104670003885082919292A293B29C980DA80EB8045
:10468000FC800C211D212E213F214D805E806F80FA
:104690007884482059206A207B200429152926295E
:1046A00037294DA05EA06FA078A4E4E24E1AE3E49F
:1046B0005E0AE4EE6E0AE0E77E0A440E551E661EB0
:1046C000771E400E511E621E731E8C019D0145E037
:1046D000000F111F221F331F4A95D1F7AC01BD01F6
:1046E000EBE17695679557954795EA95D1F7042BB9
:1046F000152B262B372B400E511E621E731EB50143
:10470000A401F2E07695679557954795FA95D1F70C
:10471000750164011EE1CC0CDD1CEE1CFF1C1A951A
:10472000D1F7C42AD52AE62AF72AC986DA86EB8683
:10473000FC8649AD5AAD6BAD7CADEDA8FEA80FA9C6
:1047400018AD4E255F256027712729960CAD1DAD4C
:104750002EAD3FAD2997402751276227732789A4A3
:104760009AA4ABA4BCA4482559256A257B255A01E7
:104770006B01AA0CBB1CCC1CDD1CA11CA9AEBAAEE3
:10478000CBAEDCAE09851A852B853C85082B192B11
:104790002A2B3B2BCD80DE80EF80F8840C211D215D
:1047A0002E213F21C984DA84EB84FC84C822D922DB
:1047B000EA22FB220C291D292E293F29C9ACDAAC9B
:1047C000EBACFCAC44E2C41A43E4D40A44EEE40A81
:1047D00040E7F40A89809A80AB80BC80C80CD91C61
:1047E000EA1CFB1CC00ED11EE21EF31E5301420147
:1047F00005E0880C991CAA1CBB1C0A95D1F7B301D3
:10480000A2012BE176956795579547952A95D1F7A3
:10481000842A952AA62AB72AC80CD91CEA1CFB1C94
:10482000AC01BD0132E076956795579547953A956D
:10483000D1F78C019D01EEE1000F111F221F331FE4
:10484000EA95D1F7042B152B262B372B09831A83D6
:104850002B833C8321968CAD9DADAEADBFAD219732
:104860002DA53EA54FA558A982279327A427B52794
:104870002D964CAD5DAD6EAD7FAD2D978427952700
:10488000A627B72789A09AA0ABA0BCA08825992508
:10489000AA25BB258C019D01000F111F221F331F6C
:1048A000011D21960CAF1DAF2EAF3FAF219749815F
:1048B0005A816B817C81442955296629772989850C
:1048C0009A85AB85BC85482359236A237B2389803D
:1048D0009A80AB80BC8084209520A620B720842AB3
:1048E000952AA62AB72A04521344244E30474D81F4
:1048F0005E816F817885040F151F261F371F800E7C
:10490000911EA21EB31EB701A601F5E0440F551F6C
:10491000661F771FFA95D1F797018601ABE13695AF
:10492000279517950795AA95D1F7042B152B262BBC
:10493000372B080D191D2A1D3B1DD301C20142E072
:10494000B695A795979587954A95D1F7530142015A
:104950005EE1880C991CAA1CBB1C5A95D1F7882AC9
:10496000992AAA2ABB2A8D829E82AF82B8864DA937
:104970005EA96FA978AD25968CAD9DADAEADBFADEE
:104980002597482759276A277B274D845E846F84A3
:10499000788844255525662577256DA07EA08FA0B3
:1049A00098A446255725682579254A015B01880C7E
:1049B000991CAA1CBB1C811C8DAA9EAAAFAAB8AECA
:1049C0004D815E816F8178854C295D296E297F2913
:1049D00089819A81AB81BC81482359236A237B2337
:1049E0008D809E80AF80B8848C209D20AE20BF201B
:1049F000482959296A297B298DA89EA8AFA8B8AC57
:104A000094E2891A93E4990A94EEA90A90E7B90A04
:104A100049845A846B847C84840C951CA61CB71C26
:104A2000840E951EA61EB71ED901C80165E0880F29
:104A3000991FAA1FBB1F6A95D1F7280139017BE195
:104A400076946794579447947A95D1F78429952959
:104A5000A629B729880D991DAA1DBB1DB701A6015E
:104A6000E2E07695679557954795EA95D1F7360137
:104A70004701FEE1660C771C881C991CFA95D1F75A
:104A8000642A752A862A972A69867A868B869C8666
:104A90004DA55EA56FA578A98D889E88AF88B88C36
:104AA000482559256A257B25A988BA88CB88DC88C2
:104AB0004A255B256C257D25C9ACDAACEBACFCAC9A
:104AC0004C255D256E257F252A013B01440C551C94
:104AD000661C771C411C4DA65EA66FA678AA898429
:104AE0009A84AB84BC84802A912AA22AB32ACD80DE
:104AF000DE80EF80F8848C209D20AE20BF2049848A
:104B00005A846B847C84402251226222732284283E
:104B10009528A628B7284DA45EA46FA478A844E2DF
:104B2000441A43E4540A44EE640A40E7740AC98014
:104B3000DA80EB80FC804C0C5D1C6E1C7F1C480CEA
:104B4000591C6A1C7B1CAC01BD01E5E0440F551FDC
:104B5000661F771FEA95D1F76C017D01FBE1F694A2
:104B6000E794D794C794FA95D1F74C295D296E291B
:104B70007F29440D551D661D771D68017901E2E00E
:104B8000F694E794D794C794EA95D1F728013901B0
:104B9000FEE1440C551C661C771CFA95D1F74C2895
:104BA0005D286E287F2849825A826B827C822596F6
:104BB0000CAD1DAD2EAD3FAD2597698C7A8C8B8CDD
:104BC0009C8C06251725282539258D8C9E8CAF8C2D
:104BD000B8A0082519252A253B252196ACACBDACEB
:104BE000CEACDFAC21970A251B252C253D2568017D
:104BF0007901CC0CDD1CEE1CFF1CC11C2596CCAE33
:104C0000DDAEEEAEFFAE259789809A80AB80BC808A
:104C1000882A992AAA2ABB2AE984FA840B851C854A
:104C20008E209F20A022B12249805A806B807C80F8
:104C3000482259226A227B2284289528A628B72850
:104C400025964CAC5DAC6EAC7FAC259704E2401A67
:104C500003E4500A04EE600A00E7700ACD80DE80AB
:104C6000EF80F8844C0C5D1C6E1C7F1C480C591C9A
:104C70006A1C7B1C6A017B0115E0CC0CDD1CEE1C60
:104C8000FF1C1A95D1F78A019B01EBE13695279518
:104C900017950795EA95D1F7C02AD12AE22AF32A77
:104CA000C40CD51CE61CF71C8C019D01F2E0369566
:104CB000279517950795FA95D1F7EEE1880F991F7B
:104CC000AA1FBB1FEA95D1F7802B912BA22BB32BE8
:104CD0000D891E892F89388D49A85AA86BA87CA8F0
:104CE000042515252625372569A47AA48BA49CA420
:104CF00006251725282539258DA89EA8AFA8B8AC6C
:104D0000082519252A253B2528013901440C551C65
:104D1000661C771C411C4D825E826F8278868A01F8
:104D20009B01082B192B2A2B3B2B69807A808B80C7
:104D30009C8006211721282139214A015B01882204
:104D40009922AA22BB22802A912AA22AB32A4D8024
:104D50005E806F80788404E2401A03E4500A04EE17
:104D6000600A00E7700A09851A852B853C85400E8C
:104D7000511E621E731E840C951CA61CB71C970145
:104D80008601F5E0000F111F221F331FFA95D1F79E
:104D900026013701EBE17694679457944794EA959E
:104DA000D1F70429152926293729800E911EA21E24
:104DB000B31E8A019B01F2E036952795179507955A
:104DC000FA95D1F72A013B014EE1440C551C661CB3
:104DD000771C4A95D1F7402A512A622A732A4D8AB4
:104DE0005E8A6F8A788E498D5A8D6B8D7C8D29965F
:104DF0000CAD1DAD2EAD3FAD299740275127622741
:104E0000732749A05AA06BA07CA044255525662590
:104E100077250DA51EA52FA538A940275127622764
:104E200073272A013B01440C551C661C771C411C4E
:104E300049865A866B867C864D885E886F88788C1A
:104E4000482659266A267B264C245D246E247F241E
:104E500009851A852B853C850A521E432D49354309
:104E600049815A816B817C81040F151F261F371FD2
:104E7000040D151D261D371DB501A401E5E0440FE5
:104E8000551F661F771FEA95D1F724013501FBE115
:104E90007694679457944794FA95D1F74429552905
:104EA00066297729040F151F261F371FB701A60192
:104EB000E2E07695679557954795EA95D1F72601F3
:104EC0003701FEE1440C551C661C771CFA95D1F79E
:104ED000442A552A662A772A49A95AA96BA97CA986
:104EE0002D96CCACDDACEEACFFAC2D974C255D2502
:104EF0006E257F25CDA0DEA0EFA0F8A44C255D2572
:104F00006E257F252596CCACDDACEEACFFAC2597AD
:104F10004C255D256E257F256A017B01CC0CDD1CAF
:104F2000EE1CFF1CC11CC982DA82EB82FC824D8917
:104F30005E896F89788D4425552566257725482516
:104F400059256A257B25EAE2CE1AEEE3DE0AEDE971
:104F5000EE0AE5E3FE0A8C0D9D1DAE1DBF1D840FFC
:104F6000951FA61FB71F6801790145E0CC0CDD1C19
:104F7000EE1CFF1C4A95D1F7B901A801EBE176952B
:104F8000679557954795EA95D1F7C42AD52AE62A19
:104F9000F72A8C0D9D1DAE1DBF1DB501A401F2E0C9
:104FA0007695679557954795FA95D1F77501640100
:104FB000EEE1CC0CDD1CEE1CFF1CEA95D1F7C42AF7
:104FC000D52AE62AF72AC98EDA8EEB8EFC8E299630
:104FD000CCACDDACEEACFFAC29974D855E856F8522
:104FE0007889C426D526E626F72689AC9AACABACE0
:104FF000BCACC824D924EA24FB244D815E816F8196
:105000007885C426D526E626F72646015701880C62
:10501000991CAA1CBB1C811C29968CAE9DAEAEAE01
:10502000BFAE2997C98CDA8CEB8CFC8CC424D524B8
:10503000E624F724C026D126E226F326B501A401F2
:105040004A525E436D4975438D889E88AF88B88CFF
:10505000480D591D6A1D7B1D4C0D5D1D6E1D7F1D6C
:105060004C015D01F5E0880C991CAA1CBB1CFA954B
:10507000D1F76C017D01EBE1F694E794D794C794E6
:10508000EA95D1F78C289D28AE28BF28480D591DD8
:105090006A1D7B1D68017901F2E0F694E794D794CC
:1050A000C794FA95D1F7480159011EE1880C991C63
:1050B000AA1CBB1C1A95D1F78C289D28AE28BF28A6
:1050C0008D8A9E8AAF8AB88E2D960CAD1DAD2EAD01
:1050D0003FAD2D97A988BA88CB88DC880A251B2587
:1050E0002C253D252196CCACDDACEEACFFAC219758
:1050F0000C251D252E253F2589849A84AB84BC84EC
:10510000082519252A253B2558016901AA0CBB1C35
:10511000CC1CDD1CA11C2D96ACAEBDAECEAEDFAE60
:105120002D97898C9A8CAB8CBC8CCD88DE88EF88CF
:10513000F88C8C249D24AE24BF2488269926AA2688
:10514000BB262D96CCACDDACEEACFFAC2D970AE2C5
:10515000C01A0EE3D00A0DE9E00A05E3F00AC40C18
:10516000D51CE61CF71CC80CD91CEA1CFB1C8A01C8
:105170009B01E5E0000F111F221F331FEA95D1F7B5
:105180002A013B01FBE17694679457944794FA9582
:10519000D1F70429152926293729C00ED11EE21E70
:1051A000F31E8C019D01E2E0369527951795079532
:1051B000EA95D1F72C013D01FEE1440C551C661C1B
:1051C000771CFA95D1F7402A512A622A732A49AAF4
:1051D0005AAA6BAA7CAA8D859E85AF85B8896D8CED
:1051E0007E8C8F8C98A086259725A825B9258DA81B
:1051F0009EA8AFA8B8AC88259925AA25BB2509810A
:105200001A812B813C8180279127A227B3272C016B
:105210003D01440C551C661C771C411C61964CAE2C
:105220005DAE6EAE7FAE61978D899E89AF89B88D78
:1052300069A87AA88BA89CA886259725A825B925B2
:1052400084279527A627B72761968CAC9DACAEAC7A
:10525000BFAC61970AE2801A0EE3900A0DE9A00A3A
:1052600005E3B00A498C5A8C6B8C7C8C840C951CA1
:10527000A61CB71C880E991EAA1EBB1ED701C6010C
:1052800015E0880F991FAA1FBB1F1A95D1F7260199
:1052900037010BE176946794579447940A95D1F7B8
:1052A00084299529A629B729880E991EAA1EBB1EF6
:1052B000DB01CA0122E0B695A795979587952A95B7
:1052C000D1F78A019B014EE1000F111F221F331FEE
:1052D0004A95D1F7082B192B2A2B3B2B0D871E87BC
:1052E0002F87388B89899A89AB89BC8929A53AA5EA
:1052F0004BA55CA582279327A427B5274DA55EA5BE
:105300006FA578A984279527A627B72729964CAC9F
:105310005DAC6EAC7FAC299784259525A625B72575
:105320008C019D01000F111F221F331F011D098FCA
:105330001A8F2B8F3C8F89A99AA9ABA9BCA92D855F
:105340003E854F85588982279327A427B5278C252A
:105350009D25AE25BF25098D1A8D2B8D3C8D0A52BA
:105360001E432D4935434D895E896F89788D040F21
:10537000151F261F371F800F911FA21FB31FB501D6
:10538000A401E5E0440F551F661F771FEA95D1F78A
:1053900024013501FBE17694679457944794FA957C
:1053A000D1F744295529662977298A019B01080FDD
:1053B000191F2A1F3B1FD701C60142E0B695A795CA
:1053C000979587954A95D1F7260137015EE1440C00
:1053D000551C661C771C5A95D1F7482A592A6A2A07
:1053E0007B2A498A5A8A6B8A7C8A4D8C5E8C6F8CA8
:1053F00078A0C9A0DAA0EBA0FCA04C245D246E2408
:105400007F2425964CAD5DAD6EAD7FAD25974426CE
:105410005526662677262D966CAD7DAD8EAD9FAD5B
:105420002D974626572668267926D301C201880F74
:10543000991FAA1FBB1F811D8D8B9E8BAF8BB88FB1
:105440004D845E846F847888C988DA88EB88FC880C
:105450004C245D246E247F24482459246A247B2410
:105460008A529E43AD49B54349A95AA96BA97CA963
:10547000840F951FA61FB71F840D951DA61DB71D70
:105480006801790165E0CC0CDD1CEE1CFF1C6A95FF
:10549000D1F7B901A801EBE1769567955795479546
:1054A000EA95D1F7C42AD52AE62AF72A8C0D9D1D44
:1054B000AE1DBF1DB501A401F2E076956795579525
:1054C0004795FA95D1F775016401EEE1CC0CDD1C2E
:1054D000EE1CFF1CEA95D1F7C42AD52AE62AF72A42
:1054E00049A55AA56BA57CA54DA05EA06FA078A488
:1054F00044255525662577256D807E808F8098848C
:10550000462557256825792561968CAC9DACAEACB7
:10551000BFAC6197482559256A257B252A013B01A7
:10552000440C551C661C771C411C4D8E5E8E6F8E84
:1055300078A249885A886B887C884C245D246E2424
:105540007F2440265126622673264D8D5E8D6F8DF9
:1055500078A14A525E436D4975438D849E84AF8421
:10556000B888480D591D6A1D7B1D440D551D661DCB
:10557000771D2C013D01F5E0440C551C661C771C81
:10558000FA95D1F74C015D01EBE1B694A79497949D
:105590008794EA95D1F7482859286A287B28440D32
:1055A000551D661D771D48015901F2E0B694A79478
:1055B00097948794FA95D1F7280139011EE1440C9C
:1055C000551C661C771C1A95D1F7482859286A285B
:1055D0007B284D865E866F86788A09A11AA12BA149
:1055E0003CA169AC7AAC8BAC9CAC06251725282570
:1055F000392589849A84AB84BC84082519252A25F9
:105600003B25498C5A8C6B8C7C8C042515252625D2
:10561000372538014901660C771C881C991C611CD0
:1056200069A27AA28BA29CA28D849E84AF84B88842
:105630008C249D24AE24BF2488269926AA26BB2626
:1056400049A05AA06BA07CA00AE2401A0EE3500ABF
:105650000DE9600A05E3700A09891A892B893C89DA
:10566000400E511E621E731E480C591C6A1C7B1C86
:105670008A019B01E5E0000F111F221F331FEA95ED
:10568000D1F74A015B01FBE1B694A7949794879404
:10569000FA95D1F7082919292A293B29400E511ECC
:1056A000621E731E8C019D01E2E0369527951795C9
:1056B0000795EA95D1F74C015D01FEE1880C991C34
:1056C000AA1CBB1CFA95D1F7802A912AA22AB32AD8
:1056D000898A9A8AAB8ABC8A0DA11EA12FA138A5FE
:1056E00021968CAD9DADAEADBFAD21970827192792
:1056F0002A273B2789809A80AB80BC800825192502
:105700002A253B258D899E89AF89B88D08271927C1
:105710002A273B2748015901880C991CAA1CBB1C4D
:10572000811C8DA29EA2AFA2B8A60D851E852F85D5
:10573000388989899A89AB89BC89082719272A273A
:105740003B2704271527262737279AE2891A9EE345
:10575000990A9DE9A90A95E3B90A8C0C9D1CAE1C17
:10576000BF1C800E911EA21EB31ED301C20115E004
:10577000880F991FAA1FBB1F1A95D1F773016201E9
:105780000BE1F694E794D794C7940A95D1F78C2946
:105790009D29AE29BF29880E991EAA1EBB1EDB01BA
:1057A000CA0122E0B695A795979587952A95D1F7D6
:1057B0006A017B013EE1CC0CDD1CEE1CFF1C3A951E
:1057C000D1F7C82AD92AEA2AFB2A49AD5AAD6BADCE
:1057D0007CAD0DA91EA92FA938AD402751276227FE
:1057E000732729968CAD9DADAEADBFAD29974827E7
:1057F00059276A277B270D8D1E8D2F8D38A14027B5
:10580000512762277327DB01CA01880F991FAA1F3E
:10581000BB1F811D89AF9AAFABAFBCAF89899A8995
:10582000AB89BC898C259D25AE25BF258425952572
:10583000A625B72509AD1AAD2BAD3CAD0A521E43C6
:105840002D4935434D855E856F857889040F151F79
:10585000261F371F800F911FA21FB31FB501A40180
:10586000E5E0440F551F661F771FEA95D1F79501B4
:105870008401FBE13695279517950795FA95D1F7A1
:10588000402B512B622B732B8A019B01080F191F90
:105890002A1F3B1FD301C20142E0B695A7959795F9
:1058A00087954A95D1F7B301A201EEE1440F551F48
:1058B000661F771FEA95D1F7482B592B6A2B7B2B54
:1058C0004D875E876F87788B21968CAD9DADAEAD91
:1058D000BFAD21974DA45EA46FA478A8842595251B
:1058E000A625B7252D964CAD5DAD6EAD7FAD2D9740
:1058F00084279527A627B72749A05AA06BA07CA08C
:1059000084259525A625B725AC01BD01440F551F5B
:10591000661F771F411D21964CAF5DAF6EAF7FAF05
:1059200021974D845E846F8478884C245D246E2496
:105930007F24482459246A247B24DB01CA018A522B
:105940009E43AD49B54349895A896B897C89840F47
:10595000951FA61FB71F840D951DA61DB71D2801F5
:105960003901F5E0440C551C661C771CFA95D1F7FB
:10597000B901A801EBE17695679557954795EA95AA
:10598000D1F7442A552A662A772A840D951DA61D2B
:10599000B71DB501A401F2E0769567955795479537
:1059A000FA95D1F724013501EEE1440C551C661C33
:1059B000771CEA95D1F7442A552A662A772A498A1C
:1059C0005A8A6B8A7C8A4DA95EA96FA978AD259603
:1059D0006CAC7DAC8EAC9FAC2597462557256825D1
:1059E000792561968CAC9DACAEACBFAC6197482577
:1059F00059256A257B254DA05EA06FA078A444257B
:105A00005525662577253A014B01660C771C881CC5
:105A1000991C611C6DAA7EAA8FAA98AE4D845E84E3
:105A20006F84788889889A88AB88BC8848245924F0
:105A30006A247B2440265126622673264DA95EA93E
:105A40006FA978AD4A525E436D4975434C0D5D1D9B
:105A50006E1D7F1D440D551D661D771D2C013D01DA
:105A6000F5E0440C551C661C771CFA95D1F74C01E7
:105A70005D01EBE1B694A79497948794EA95D1F7EA
:105A800084289528A628B728840E951EA61EB71E22
:105A9000B901A801F2E07695679557954795FA9573
:105AA000D1F7680179011EE1CC0CDD1CEE1CFF1C56
:105AB0001A95D1F7C42AD52AE62AF72AC9A6DAA662
:105AC000EBA6FCA64DA55EA56FA578A9ED80FE808E
:105AD0000F8118854E255F2560277127098D1A8D46
