:100000000C9402070C9433070C9433070C943307B9
:100010000C9433070C9433070C9433070C94330778
:100020000C9433070C9433070C9433070C94330768
:100030000C9433070C9433070C9433070C94330758
:100040000C9433070C9433070C9433070C94330748
:100050000C9433070C9433070C9433070C944140F1
:100060000C9433070C94F5390C94CB390C9433076A
:100070000C9433070C9433070C9433070C94330718
:100080000C9433070C9433070C9433070C94330708
:100090000C94A1390C9477390C9433070C948B4051
:1000A0000C9433070C9433070C9433070C943307E8
:1000B0000C9433070C9433070C9433070C943307D8
:1000C0000C9433070C9433070C9433070C944D397C
:1000D0000C9423390C9433070C94F9380C94CF38D2
:1000E0000C9433070C949B080C94E6350C94DF3386
:1000F0000C94D1560C94ED4E0C94E5A50C943B5801
:100100000C94C17A0C94F30A0C942E0B0C94DA33F1
:100110000C94C1510C94100A0C943C3B0C948D0926
:100120000C94AB080C94463B0C944C0B0C9400556F
:100130000C9493330C94C1080C9486080C94B30867
:100140000C94D9500C9422550C94D6070C947973C6
:100150000C94A2500C9494090C94BE3A0C94503B0D
:100160000C9479530C94A5080C94A3570C94C933A0
:100170000C94CC330C94CB080C949A770C945C0BB5
:100180000C94B9080C94D0330C94C33A0C943E539D
:100190000C94230B0C942A710C94C1090C940B57EA
:1001A0000C9441360C9470550C9458530C94200ABE
:1001B0000C9499520C94FB3A0C94CE570C94E93A57
:1001C0000C94D1530C943C570C9439510C94283B0B
:1001D0000C94CD3A0C9420760C9423080C945B7A02
:1001E0000C9410580C945F590C94D73A0C94707A74
:1001F0000C94C6080C94440B0C940F3B0C9456546E
:100200000C940D0B0C94B3560C94090B0C94BA532C
:100210000C94DC330C947F710C94A1080C94980816
:100220000C9490080C940E750C945E070C947A5103
:100230000C94AF080C9480070C94B63A0C946B099C
:100240000C9415760C94E54B0C943C950C949150C1
:100250000C948C080C94323B0C941E3B0C94E13AA9
:100260000C94F0090C94E2520C940A790C94F13A33
:100270000C945B550C94BD080C9468350C94895112
:100280000C9494080C94EF4B0C9435070C94480B89
:100290000C9459330C94AF330C94C7080C94594CFC
:1002A0000C9472070C9473570C944F070C94B83647
:1002B0000C947A090C94053B0C94B8524E414E496B
:1002C0004E495459494E46CDCCCC3D0AD7233C1714
:1002D000B7D13877CC2B329595E6241FB14F0A0061
:1002E0000020410000C84200401C4620BCBE4CCA51
:1002F0001B0E5AAEC59D7400407A10F35A00A072CE
:100300004E18090010A5D4E80000E8764817000050
:10031000E40B54020000CA9A3B000000E1F505001E
:100320000080969800000040420F000000A0860167
:10033000000000102700000000E803000000006437
:1003400000000000000A00000000000100000000A2
:10035000002C76D888DC674F0823DFC1DFAE59E177
:10036000B1B796E5E3E453C63AE651997696E8E6E6
:10037000C28426EB898C9B62ED407C6FFCEFBC9CB9
:100380009F40F2BAA56FA5F490055A2AF75C936BCB
:100390006CF9676DC11BFCE0E40D47FEF520E6B586
:1003A00000D0ED902E0300943577050080841E0860
:1003B0000000204E0A000000C80C333333330F987E
:1003C0006E12831141EF8D2114893BE65516CFFE45
:1003D000E6DB18D1844B381BF77C1D901DA4BBE4D1
:1003E00024203284725E228100C9F124ECA1E53D13
:1003F00027436F6E6E65637465640020436F6E6E95
:1004000065637465642100204552524F5221004CAF
:100410006576656C4C4C004C6576656C4C004C65A3
:1004200076656C48006465626974007048007465A4
:100430006D7065726174757265004D65736F4944C6
:1004400000736F727469655049445F706300636F35
:100450006E7369676E6500726567756C70480073CE
:100460006F727469655049445F706300636F6E73A7
:1004700069676E6500726567756C54656D700064C0
:100480006174610074696D650070480074656D7019
:10049000657261747572650073656E646572494456
:1004A00000636F6E64494400636F6D6D616E64003C
:1004B0006F666673657400636F6E7369676E654619
:1004C0006F7263616765006175746F7269736174DF
:1004D000696F6E466F7263616765004B64004B69BC
:1004E000004B7000636F6E7369676E6500726567BD
:1004F000756C54656D70006F666673657400636F2C
:100500006E7369676E65466F7263616765006175DA
:10051000746F7269736174696F6E466F726361673D
:1005200065004B64004B69004B7000636F6E73692C
:10053000676E6500726567756C7048006F666673FC
:10054000657400636F6E7369676E65466F72636191
:100550006765006175746F7269736174696F6E4667
:100560006F7263616765004B64004B69004B7000FC
:10057000636F6E7369676E6500726567756C507244
:10058000657373696F6E4543006F666673657400CB
:10059000636F6E7369676E65466F7263616765004E
:1005A0006175746F7269736174696F6E466F72639F
:1005B000616765004B64004B69004B7000636F6EB0
:1005C0007369676E6500726567756C5072657373E9
:1005D000696F6E45410070480074656D70657261A9
:1005E0007475726500736F727469655049445F7009
:1005F0006300726567756C704800636F6E7369673E
:100600006E6500726567756C704800736F7274690F
:10061000655049445F706300726567756C54656D21
:100620007000636F6E7369676E6500726567756CE5
:1006300054656D70004C6576656C4C4C004C65766D
:10064000656C4C004C6576656C4800646562697445
:100650000070480074656D70657261747572650034
:100660004D65736F49440064617461006E65787410
:10067000546964654C6F77006E657874546964657D
:1006800048696768006E65787453756E446F776E5D
:10069000006E65787453756E557000736F7274696F
:1006A000655049445F454300736F727469655049F2
:1006B000445F4541007072657373696F6E45430016
:1006C0007072657373696F6E45410074656D706516
:1006D0007261747572650073616C696E697465002E
:1006E000704800666C756F007475726200636F6E9F
:1006F00064006F78790074696465007469646500EA
:1007000073756E0073756E0074696D650073656E48
:10071000646572494400636F6E64494400636F6DA1
:100720006D616E640077726F6E67207265717565BA
:1007300073740063616C69622E76616C75653A0052
:1007400063616C69622E63616C6962506172616D94
:100750003A0063616C69622E73656E736F7249440F
:100760003A0076616C75650063616C696250617214
:10077000616D0073656E736F7249440043414C496B
:10078000422052455120726563656976656400CDEB
:10079000CCCC3D0AD7233C17B7D13877CC2B329538
:1007A00095E6241FB14F0A0000803FCDCCCC3D6FB1
:1007B00012833A95BFD6337D1D9026B3CE010C002F
:1007C0000020410000C84200401C4620BCBE4CCA6C
:1007D0001B0E5AAEC59D746572726F72206F706584
:1007E0006E696E672066696C65005D2E4C65766586
:1007F0006C4C4C3B005D2E4D65736F5B00436F6E20
:10080000646974696F6E5B005D2E4C6576656C4C37
:100810003B005D2E4D65736F5B00436F6E646974C2
:10082000696F6E5B005D2E4C6576656C483B005DC4
:100830002E4D65736F5B00436F6E646974696F6EF4
:100840005B005D2E466C6F77526174653B005D2ED8
:100850004D65736F5B00436F6E646974696F6E5BA7
:10086000005D2E70483B005D2E4D65736F5B00434D
:100870006F6E646974696F6E5B005D2E54656D7098
:10088000657261747572653B005D2E4D65736F5BBB
:1008900000436F6E646974696F6E5B005D2E736FE9
:1008A000727469655049445F54656D706572617416
:1008B0007572653B00436F6E646974696F6E5B00AF
:1008C0005D2E636F6E7369676E655F54656D7065ED
:1008D0007261747572653B00436F6E646974696F11
:1008E0006E5B005D2E736F727469655049445F7072
:1008F000483B00436F6E646974696F6E5B005D2EE8
:10090000636F6E7369676E655F70483B00436F6E1F
:10091000646974696F6E5B005D2E70483B00436FC5
:100920006E646974696F6E5B005D2E54656D7065F1
:100930007261747572653B00436F6E646974696FB0
:100940006E5B0074696D657374616D703B53756E99
:100950003B546964653B416D6269616E742E4F3230
:100960003B416D6269616E742E436F6E6475637492
:1009700069766974793B416D6269616E742E547554
:10098000726269646974793B416D6269616E742E4B
:10099000466C756F3B416D6269616E742E54656D76
:1009A00070657261747572653B416D6269616E74E8
:1009B0002E70483B0066696C6520646F6573206E1D
:1009C0006F742065786973742E2057726974696E2C
:1009D000672068656164657273007C3C3E5E2B3DF8
:1009E0003F2F5B5D3B2C2A225C000000210024008D
:1009F00027002A002D00300033000101000004010F
:100A000007010A01000020002300260029002C0015
:100A10002F0032000001000003010601090100005F
:100A20000A0B02090C0D0E08070304010000000068
:100A300000000000000000000000000000000000B6
:100A40000000000000000000000012111000000073
:100A50000000000000000000000000000000000096
:100A600000000000456E6420534554555000456E0B
:100A70006420534400456E6420506172616D7300C0
:100A8000456E642052544300456E64205254432006
:100A90007265616400656E6420776562736F636B75
:100AA0006574002B2B2B0045746865726E6574208D
:100AB000535441525445440053544152542B0071F5
:100AC000756572792073656E740071756572792031
:100AD0004F4B00666163746F727920726573657441
:100AE0000073656E642063616C69622076616C7569
:100AF00065204F4B006765742073746174757320B3
:100B00004F4B0073656E642063616C6962204F4BCC
:100B100000736574204C6576656C2053204F4B0044
:100B200043414C49422048414D494C544F4E00549A
:100B300044533A0073616C696E6974653A00636F7F
:100B40006E6475637469766974653A0054656D7096
:100B5000657261747572653A006D672F4C3A004694
:100B60004E553A004E54553A0054656D70657261A9
:100B7000747572653A0052454144204E5455006FD9
:100B800078792070706D3A006F7879206D672F4CFE
:100B90003A006F787920253A0054656D706572616E
:100BA000747572653A0070483A006F6666736574D2
:100BB00000636F6E7369676E65466F726361676528
:100BC000006175746F7269736174696F6E466F72DC
:100BD00063616765006175746F7269736174696FD1
:100BE0006E466F7263616765004B64004B69004B32
:100BF0007000636F6E7369676E6500726567756C10
:100C00005072657373696F6E4543006F66667365F6
:100C10007400636F6E7369676E65466F72636167B8
:100C200065006175746F7269736174696F6E466F88
:100C30007263616765006175746F7269736174696D
:100C40006F6E466F7263616765004B64004B6900AD
:100C50004B7000636F6E7369676E650072656775D0
:100C60006C5072657373696F6E45410074696D6590
:100C70000073656E646572494400636F6E64494435
:100C800000636F6D6D616E64006F666673657400FE
:100C9000636F6E7369676E65466F72636167650047
:100CA0006175746F7269736174696F6E466F726398
:100CB000616765006175746F7269736174696F6EE5
:100CC000466F7263616765004B64004B69004B704F
:100CD00000636F6E7369676E6500726567756C702F
:100CE00048006F666673657400636F6E7369676E44
:100CF00065466F7263616765006175746F726973D1
:100D00006174696F6E466F726361676500617574C7
:100D10006F7269736174696F6E466F726361676544
:100D2000004B64004B69004B7000636F6E73696722
:100D30006E6500726567756C54656D700074696DE1
:100D4000650073656E646572494400636F6E644943
:100D50004400636F6D6D616E640001021020200815
:100D60000810204010204080020102010804020106
:100D70000102040810204080804020100804020175
:100D800080040201804020100804020108040201CE
:100D90000102040810204080010204081020408055
:100DA00000002200250028002B002E003100340016
:100DB00002010000050108010B01050505050705F5
:100DC00008080808020202020A0A080804040404C7
:100DD00001010101010101010303030303030303F3
:100DE000040707070C0C0C0C0C0C0C0C0202020282
:100DF00006060606060606060B0B0B0B0B0B0B0B6B
:100E0000E5A53C9511241FBECFEFD1E2DEBFCDBFDB
:100E100000E00CBF17E0A0E0B2E0E4E7F7E601E095
:100E20000BBF02C007900D92A43EB107D9F727E18E
:100E3000A4EEB7E001C01D92A63EB207E1F717E0AD
:100E4000C1E0D7E000E006C021970109802FFE0134
:100E50000E942FB2C030D10780E00807A9F70E9496
:100E60007F950C94A8B30C9400000895FC01A08910
:100E7000B1898C91A689B78982FD0FC09C91818D23
:100E80008F5F8F73228D821749F0A18DAE0FBF2F18
:100E9000B11D5D969C93818F08958C910895FC01FE
:100EA000538D448D252F30E0842F90E0821B930BCF
:100EB000541710F0CF96089501970895FC01918D75
:100EC000828D981761F0A28DAE0FBF2FB11D5D9678
:100ED0008C91928D9F5F9F73928F90E008958FEF1A
:100EE0009FEF0895FC01918D828D981731F0828DCE
:100EF000E80FF11D858D90E008958FEF9FEF089525
:100F0000FC01918D228D892F90E0805C9F4F821B88
:100F100091098F739927089580EC95E10E948007CD
:100F200021E0892B09F420E0822F089583E19EE0DF
:100F30000E94800721E0892B09F420E0822F089588
:100F400080EB9EE00E94800721E0892B09F420E0DD
:100F5000822F08958DE49FE00E94800721E0892B75
:100F600009F420E0822F0895FC01A48DA80FB92F69
:100F7000B11DA35ABF4F2C91848D90E001968F73C1
:100F80009927848FA689B7892C93A089B1898C91E0
:100F9000837080648C93938D848D981306C002882F
:100FA000F389E02D80818F7D80830895EF92FF92F9
:100FB0000F931F93CF93DF93EC0181E0888F9B8D7C
:100FC0008C8D98131AC0E889F989808185FF15C036
:100FD0009FB7F894EE89FF896083E889F989808159
:100FE0008370806480839FBF81E090E0DF91CF9128
:100FF0001F910F91FF90EF900895F62E0B8D10E04A
:101000000F5F1F4F0F731127E02E8C8D8E110CC0B8
:101010000FB607FCFACFE889F989808185FFF5CF03
:10102000CE010E94B407F1CFEB8DEC0FFD2FF11D27
:10103000E35AFF4FF0829FB7F8940B8FEA89FB8940
:1010400080818062CFCFCF93DF93EC01888D88239E
:10105000B9F0AA89BB89E889F9898C9185FD03C01B
:10106000808186FD0DC00FB607FCF7CF8C9185FF00
:10107000F2CF808185FFEDCFCE010E94B407E9CF8A
:10108000DF91CF91089580E090E0892B29F00E94B4
:10109000AA0781110E94000080E090E0892B29F0CE
:1010A0000E94A00781110E94000080E090E0892B3F
:1010B00029F00E94960781110E94000080E090E0D4
:1010C000892B29F00E948C0781110C94000008954F
:1010D0008150823108F05AC0E82FF0E08827EC58A0
:1010E000F74F8F4F0C942FB29408980886088C08FD
:1010F0009008C6089B08A108A508AB08AF08B3086C
:10110000B908BD08C608C108C708CB08809180008F
:101110008F77809380000895809180008F7DF9CF34
:1011200080918000877FF5CF84B58F7784BD089547
:1011300084B58F7DFBCF8091B0008F778093B00016
:1011400008958091B0008F7DF9CF809190008F77C6
:10115000809390000895809190008F7DF9CF8091C9
:101160009000877FF5CF8091A0008F778093A000BB
:1011700008958091A0008F7DF9CF8091A000877F96
:10118000F5CF809120018F77809320010895809181
:1011900020018F7DF9CF80912001877FF5CFCF93FC
:1011A000DF93282F30E0F901E25EF54F8491F901D9
:1011B000E65AF24FD491F901E654F24FC491CC2390
:1011C000A1F081110E946808EC2FF0E0EE0FFF1FE4
:1011D000EC5FF54FA591B491EC91ED2381E090E0A7
:1011E00009F480E0DF91CF91089580E090E0FACF9C
:1011F000863308F0865320917B00982F9870277FC4
:10120000922B90937B008770806480937C00809108
:101210007A00806480937A0080917A0086FDFCCF0A
:10122000809178009091790008953FB7F89480916B
:10123000330890913408A0913508B091360826B54E
:10124000A89B05C02F3F19F00196A11DB11D3FBFFE
:10125000BA2FA92F982F8827BC01CD01620F711DCD
:10126000811D911D42E0660F771F881F991F4A95C7
:10127000D1F7089585ED8093BC008091BC0084FD7A
:10128000FCCF1092EC0F089520910B08260F332706
:10129000331F21323105ECF42091EC0FFC0190E07A
:1012A00080E0243069F082E00895A0910B0821913C
:1012B000AC014551584FA40FB52FB11D2C93019689
:1012C000861798F380910B08680F60930B0880E0F5
:1012D000089581E00895E091F00F8091EF0FE817F5
:1012E00030F4F0E0E758F24F808190E008958FEFFE
:1012F0009FEF08959091F00F8091EF0F2FEF3FEF48
:10130000981748F4E92FF0E0E758F24F208130E0D9
:101310009F5F9093F00FC90108958091EF0F909116
:10132000F00F891B990B0895CF92DF92EF92FF92F5
:101330000F931F93CF93DF937C01CB018A01209100
:10134000BD0D222389F0EB016B01C40ED51ECC1517
:10135000DD0569F06991D701ED91FC910190F08173
:10136000E02DC7011995F3CF642F0E944409C801ED
:10137000DF91CF911F910F91FF90EF90DF90CF9071
:101380000895CF93DF931F92CDB7DEB76983209185
:10139000BD0D2223F9F02091ED0F203258F021E00D
:1013A00030E0FC013383228390E080E00F90DF91F6
:1013B000CF9108958091EE0FE82FF0E0E254F24FC4
:1013C000998190838F5F8093EE0F8093ED0F81E082
:1013D00090E0ECCF61E0CE0101960E944409F7CF86
:1013E000DC015996ED91FC913097B9F0838994898D
:1013F000A589B6894285538564857585841B950BBF
:10140000A60BB70B811520E89207A105B10538F0AE
:101410008FEF9FE7A0E0B0E0089590E080E00895AE
:10142000DC0159968D919C91009739F0DC01ED918A
:10143000FC910480F581E02D199490E080E00895FE
:10144000CF93DF931F92CDB7DEB76983DC01ED91B7
:10145000FC910280F381E02D41E050E0BE016F5F1E
:101460007F4F19950F90DF91CF9108950F931F93A0
:10147000CF93DF93EC018B018EAD882361F18E8DCC
:101480009F8D8617970739F12A893B894C895D8999
:1014900060E070E0CB010E94DCB06A8B7B8B8C8BB0
:1014A0009D8B2E893F89488D598D60E070E0CB017E
:1014B0000E94DCB06E8B7F8B888F998F2A8D3B8D3D
:1014C0004C8D5D8D60E070E0CB010E94DCB06A8FD6
:1014D0007B8F8C8F9D8F1F8F0E8FDF91CF911F91F0
:1014E0000F9108958F929F92AF92BF92CF92DF9209
:1014F000EF92FF92CF93DF93EC01EA81FB81C080F2
:10150000D180E280F380CEA2DFA2E8A6F9A6E8812E
:10151000F98180819181A281B3818AA79BA7ACA721
:10152000BDA78AAC9BACACACBDACA5019401C70116
:10153000B6010E94F1B118162CF48EA29FA2A8A6A3
:10154000B9A60CC08EA89FA8A8ACB9ACA5019401FF
:10155000C701B6010E9429AF87FDEFCFDF91CF9180
:10156000FF90EF90DF90CF90BF90AF909F908F90C3
:101570000895FC0120812EBD9B012150310941F0CD
:1015800051810DB407FEFDCF4EB55EBD4193F5CF41
:1015900061507109860F971F0DB407FEFDCF2EB560
:1015A000FC0120830895E091730BF091740B9081FE
:1015B0008091720B80958923808308958EBD0000F1
:1015C0000DB407FEFDCF8EB5089590E02091750B08
:1015D000233339F40C96982F990F990F990F80E0C7
:1015E00008954896F8CFCF93DF931F92CDB7DEB71B
:1015F0006983DC01ED91FC910280F381E02D41E0F3
:1016000050E0BE016F5F7F4F19950F90DF91CF9132
:101610000895FC01818D928D0895CF93DF931F92E1
:10162000CDB7DEB76983DC01ED91FC910280F381D7
:10163000E02D41E050E0BE016F5F7F4F19950F90A4
:10164000DF91CF910895FC019485FB018485981367
:1016500003C081E0983008F080E00895CF93DF93D5
:101660001F92CDB7DEB76983DC01ED91FC9102805A
:10167000F381E02D41E050E0BE016F5F7F4F19958F
:101680000F90DF91CF910895FC0184859585089591
:10169000FC0184899589089522EF32E0FC013183B1
:1016A0002083FB014089518962897389FC0142834F
:1016B0005383648375830895DC01ED91FC91048C60
:1016C000F58DE02D19942F923F924F925F926F9279
:1016D0007F928F929F92AF92BF92CF92DF92EF92C2
:1016E000FF920F931F93CF93DF93CDB7DEB7CA5608
:1016F000D1090FB6F894DEBF0FBECDBFA7969FAF3E
:101700008EAFA797FB0160817181828193810E94D6
:1017100037B26D877E878F87988B648175818681CC
:1017200097810E9437B2698B7A8B8B8B9C8B6085FB
:101730007185828593850E9437B269A77AA78BA7A6
:101740009CA764857585868597850E9437B269AFA9
:101750007AAF8BAF9CAF60897189828993890E942F
:1017600037B221966CAF7DAF8EAF9FAF2197648962
:101770007589868997890E9437B26DA77EA78FA742
:1017800098AB608D718D828D938D0E9437B26D8B79
:101790007E8B8F8B988F648D758D868D978D0E9433
:1017A00037B2698F7A8F8B8F9C8F60A171A182A1D4
:1017B00093A10E9437B225966CAF7DAF8EAF9FAFDD
:1017C000259764A175A186A197A10E9437B26D8F5C
:1017D0007E8F8F8F98A360A571A582A593A50E9487
:1017E00037B269A37AA38BA39CA364A575A586A52C
:1017F00097A50E9437B269AB7AAB8BAB9CAB60A963
:1018000071A982A993A90E9437B261966CAF7DAF8E
:101810008EAF9FAF619764A975A986A997A90E9409
:1018200037B269877A878B879C8760AD71AD82AD4F
:1018300093AD0E9437B229966CAF7DAF8EAF9FAF4C
:10184000299764AD75AD86AD97AD0E9437B22D96E0
:101850006CAF7DAF8EAF9FAF2D97A796AEADBFADEE
:10186000A7974D905D906D907C90139765964CAEC8
:101870005DAE6EAE7FAE659714964D905D906D90A7
:101880007C9017976D964CAE5DAE6EAE7FAE6D9749
:1018900018964D905D906D907C901B9769964CAE1C
:1018A0005DAE6EAE7FAE69971C964D905D906D906B
:1018B0007C901F97A1964CAE5DAE6EAE7FAEA197A9
:1018C00050964D905D906D907C905397A5964CAE40
:1018D0005DAE6EAE7FAEA59769968CAD9DADAEAD9B
:1018E000BFAD6997A1964CAC5DAC6EAC7FACA197D7
:1018F00084259525A625B7256D966CAC7DAC8EAC60
:101900009FAC6D9786219721A821B921A1968CAC17
:101910009DACAEACBFACA19788259925AA25BB2567
:1019200065960CAD1DAD2EAD3FAD659745E0000F42
:10193000111F221F331F4A95D1F765964CAD5DAD3F
:101940006EAD7FAD6597EBE17695679557954795B9
:10195000EA95D1F7402B512B622B732BA5960CAD3A
:101960001DAD2EAD3FADA597075616482D47354AFC
:10197000400F511F621F731F840F951FA61FB71FB3
:10198000AD84BE84CF84D8888A0D9B1DAC1DBD1D3F
:101990006D960CAD1DAD2EAD3FAD6D97F2E0369559
:1019A000279517950795FA95D1F76D964CAD5DADD6
:1019B0006EAD7FAD6D97EEE1440F551F661F771F2B
:1019C000EA95D1F7402B512B622B732B6996CCAC47
:1019D000DDACEEACFFAC6997C426D526E626F7262B
:1019E00065960CAD1DAD2EAD3FAD6597C022D122E1
:1019F000E222F32269964CAC5DAC6EAC7FAC699789
:101A0000C424D524E624F724A1960CAD1DAD2EAD3B
:101A10003FADA197075616482D47354A0C0D1D1DA1
:101A20002E1D3F1D69887A888B889C88060D171D9E
:101A3000281D391D6C017D01F5E0CC0CDD1CEE1C70
:101A4000FF1CFA95D1F74C015D01EBE1B694A79428
:101A500097948794EA95D1F7C828D928EA28FB28D3
:101A600046015701800E911EA21EB31E89829A82E2
:101A7000AB82BC8265960CAD1DAD2EAD3FAD6597BA
:101A8000F2E03695279517950795FA95D1F7659663
:101A9000CCACDDACEEACFFAC6597EEE1CC0CDD1C64
:101AA000EE1CFF1CEA95D1F7C02AD12AE22AF32ABC
:101AB0004A015B018C249D24AE24BF2488229922F4
:101AC000AA22BB2284269526A626B72669960CADA7
:101AD0001DAD2EAD3FAD6997075616482D47354AC7
:101AE00049A45AA46BA47CA4040D151D261D371D02
:101AF000800E911EA21EB31E09811A812B813C818A
:101B0000F5E0000F111F221F331FFA95D1F749800E
:101B10005A806B807C80EBE176946794579447946D
:101B2000EA95D1F70429152926293729800E911E17
:101B3000A21EB31E8C019D01F2E0369527951795E4
:101B40000795FA95D1F72C013D01AEE1440C551CE7
:101B5000661C771CAA95D1F7402A512A622A732A5B
:101B6000D701C60184259525A625B72509811A81A7
:101B70002B813C8180239123A223B3238C259D2597
:101B8000AE25BF25475656486D47754A09AD1AAD73
:101B90002BAD3CAD400F511F621F731F480F591FE3
:101BA0006A1F7B1FD501C40115E0880F991FAA1F6A
:101BB000BB1F1A95D1F795018401EBE13695279566
:101BC00017950795EA95D1F7802B912BA22BB32B74
:101BD0008C019D01040F151F261F371F0D831E83C7
:101BE0002F83388789819A81AB81BC81F2E0B695D9
:101BF000A79597958795FA95D1F749815A816B8179
:101C00007C811EE1440F551F661F771F1A95D1F77F
:101C1000482B592B6A2B7B2BD301C2018427952794
:101C2000A627B72788219921AA21BB21842595259C
:101C3000A625B72517E6C11A16E8D10A1DE7E10A5D
:101C400015EAF10A21960CAD1DAD2EAD3FAD2197E1
:101C5000C00ED11EE21EF31E8C0D9D1DAE1DBF1DBC
:101C6000CD80DE80EF80F88405E0CC0CDD1CEE1C1E
:101C7000FF1C0A95D1F70D811E812F813885EBE17C
:101C80003695279517950795EA95D1F70C291D29C3
:101C90002E293F2968017901C80ED91EEA1EFB1EB4
:101CA000C982DA82EB82FC82D501C401F2E0B695EA
:101CB000A79597958795FA95D1F795018401EEE15F
:101CC000000F111F221F331FEA95D1F7082B192B84
:101CD0002A2B3B2BDB01CA0180279127A227B327A0
:101CE0008D809E80AF80B88488219921AA21BB2154
:101CF0006C017D01C426D526E626F7268DA59EA576
:101D0000AFA5B8A987569648AD47B54A840D951D2D
:101D1000A61DB71D8C0D9D1DAE1DBF1D89809A800F
:101D2000AB80BC80F5E0880C991CAA1CBB1CFA9502
:101D3000D1F749805A806B807C80EBE17694679480
:101D400057944794EA95D1F784289528A628B72870
:101D5000880D991DAA1DBB1DCD80DE80EF80F88403
:101D6000F2E0F694E794D794C794FA95D1F74D80B2
:101D70005E806F807884EEE1440C551C661C771CF5
:101D8000EA95D1F74C285D286E287F2868017901F3
:101D9000C424D524E624F72489809A80AB80BC80B3
:101DA000C820D920EA20FB20460157018026912631
:101DB000A226B326CD88DE88EF88F88CE7E6CE1A17
:101DC000E6E8DE0AEDE7EE0AE5EAFE0AC40ED51EF5
:101DD000E61EF71EC80CD91CEA1CFB1CAC01BD0199
:101DE000F5E0440F551F661F771FFA95D1F74C0198
:101DF0005D01EBE1B694A79497948794EA95D1F7A7
:101E0000482959296A297B294A015B018C0C9D1CB0
:101E1000AE1CBF1C8D829E82AF82B88649815A81DA
:101E20006B817C81F2E07695679557954795FA9599
:101E3000D1F7C980DA80EB80FC80EEE1CC0CDD1CB0
:101E4000EE1CFF1CEA95D1F7C42AD52AE62AF72A08
:101E5000530142018C249D24AE24BF248822992260
:101E6000AA22BB22B501A401442555256625772564
:101E7000898C9A8CAB8CBC8CE7E68E1AE6E89E0ABD
:101E8000EDE7AE0AE5EABE0A800E911EA21EB31E61
:101E9000840E951EA61EB71E0D811E812F813885CA
:101EA000F5E0000F111F221F331FFA95D1F74D8166
:101EB0005E816F817885EBE17695679557954795BB
:101EC000EA95D1F7042B152B262B372B800E911E6C
:101ED000A21EB31EAC01BD01F2E076956795579541
:101EE0004795FA95D1F78C019D01AEE1000F111FC6
:101EF000221F331FAA95D1F7042B152B262B372B26
:101F0000D701C60180279127A227B3274D815E8183
:101F10006F81788584239523A623B7238C259D255F
:101F2000AE25BF2525964CAD5DAD6EAD7FAD259739
:101F3000475656486D47754A440D551D661D771D19
:101F4000480F591F6A1F7B1FD501C401E5E0880FA8
:101F5000991FAA1FBB1FEA95D1F724013501FBE1A8
:101F60007694679457944794FA95D1F784299529E4
:101F7000A629B7292C013D01440E551E661E771E69
:101F800049825A826B827C828D819E81AF81B88525
:101F900042E0B695A795979587954A95D1F74D81DB
:101FA0005E816F817885EEE1440F551F661F771FB4
:101FB000EA95D1F7482B592B6A2B7B2BD901C80105
:101FC00084279527A627B72788219921AA21BB21F5
:101FD0002C013D0140265126622673268D8D9E8D53
:101FE000AF8DB8A187569648AD47B54A8C0D9D1D5B
:101FF000AE1DBF1D840D951DA61DB71DC980DA80BD
:10200000EB80FC80F5E0CC0CDD1CEE1CFF1CFA958F
:10201000D1F749805A806B807C80EBE1769467949D
:1020200057944794EA95D1F74C285D286E287F286D
:10203000480E591E6A1E7B1ED501C401F2E0B695FA
:10204000A79597958795FA95D1F775016401EEE10B
:10205000CC0CDD1CEE1CFF1CEA95D1F7C82AD92A4E
:10206000EA2AFB2ACD82DE82EF82F886D701C601FA
:1020700084279527A627B72789809A80AB80BC80C4
:1020800088219921AA21BB216C017D01C426D52676
:10209000E626F72689A19AA1ABA1BCA1875696484E
:1020A000AD47B54A800F911FA21FB31F8C0D9D1D18
:1020B000AE1DBF1D53014201F5E0880C991CAA1CFE
:1020C000BB1CFA95D1F793018201EBE13695279578
:1020D00017950795EA95D1F7802A912AA22AB32A63
:1020E000880D991DAA1DBB1D09811A812B813C8178
:1020F000F2E03695279517950795FA95D1F7A980BF
:10210000BA80CB80DC80EEE1AA0CBB1CCC1CDD1CB1
:10211000EA95D1F7A02AB12AC22AD32AA982BA8283
:10212000CB82DC82CD80DE80EF80F88409811A8149
:102130002B813C81C026D126E226F326C420D5205F
:10214000E620F7200D811E812F8138850C251D2565
:102150002E253F25C9A8DAA8EBA8FCA8E7E6CE1AE9
:10216000E6E8DE0AEDE7EE0AE5EAFE0AC40ED51E51
:10217000E61EF71EC00ED11EE21EF31EAC01BD010D
:10218000F5E0440F551F661F771FFA95D1F74C01F4
:102190005D011BE1B694A794979487941A95D1F7A3
:1021A000482959296A297B29C40ED51EE61EF71E27
:1021B000B301A20102E076956795579547950A9578
:1021C000D1F793018201EEE1000F111F221F331F8F
:1021D000EA95D1F7042B152B262B372B89809A8073
:1021E000AB80BC8080269126A226B3268822992225
:1021F000AA22BB2249805A806B807C8048245924C3
:102200006A247B2461968CAC9DACAEACBFAC61976C
:10221000F7E68F1AF6E89F0AFDE7AF0AF5EABF0A6C
:102220004D815E816F817885840E951EA61EB71E36
:10223000840C951CA61CB71C26013701F5E0440C44
:10224000551C661C771CFA95D1F7B701A601EBE186
:102250007695679557954795EA95D1F7442A552A7B
:10226000662A772AB301A201480D591D6A1D7B1DFC
:102270004D835E836F837887AC01BD01F2E0769574
:10228000679557954795FA95D1F74C015D01AEE1F9
:10229000880C991CAA1CBB1CAA95D1F7842A952AE4
:1022A000A62AB72AD901C80188259925AA25BB25C0
:1022B0008C219D21AE21BF2180279127A227B32702
:1022C00049855A856B857C85475656486D47754AC2
:1022D00049805A806B807C80440D551D661D771D9A
:1022E000480F591F6A1F7B1F8D819E81AF81B88562
:1022F000E5E0880F991FAA1FBB1FEA95D1F74D8013
:102300005E806F807884FBE176946794579447945D
:10231000FA95D1F784299529A629B729480F591F7D
:102320006A1F7B1FD701C601E2E0B695A795979576
:102330008795EA95D1F726013701FEE1440C551C3B
:10234000661C771CFA95D1F7482A592A6A2A7B2AF3
:1023500049825A826B827C82482459246A247B24D5
:10236000CD80DE80EF80F8844C205D206E207F20C1
:1023700073016201C824D924EA24FB2429964CACB9
:102380005DAC6EAC7FAC299787E6481A86E8580AA0
:102390008DE7680A85EA780A400E511E621E731E98
:1023A0004C0C5D1C6E1C7F1C6A017B01A5E0CC0CF3
:1023B000DD1CEE1CFF1CAA95D1F78A019B01BBE135
:1023C0003695279517950795BA95D1F7C02AD12A42
:1023D000E22AF32A4C0C5D1C6E1C7F1C8D819E81B1
:1023E000AF81B88512E0B695A795979587951A9510
:1023F000D1F7CD80DE80EF80F8840EE1CC0CDD1CBF
:10240000EE1CFF1C0A95D1F7C82AD92AEA2AFB2A12
:10241000CD82DE82EF82F88689819A81AB81BC8190
:102420008C259D25AE25BF2584239523A623B72380
:10243000C980DA80EB80FC80C826D926EA26FB26F4
:102440002D968CAD9DADAEADBFAD2D978756964800
:10245000AD47B54A880D991DAA1DBB1D8C0D9D1D4C
:10246000AE1DBF1D5301420125E0880C991CAA1C1A
:10247000BB1C2A95D1F793018201EBE13695279594
:1024800017950795EA95D1F7802A912AA22AB32AAF
:10249000880D991DAA1DBB1D8A019B01F2E036958E
:1024A000279517950795FA95D1F7EEE1440F551F3B
:1024B000661F771FEA95D1F7402B512B622B732BA8
:1024C0000D851E852F85388989A49AA4ABA4BCA448
:1024D000082519252A253B252596ACACBDACCEACEC
:1024E000DFAC25970A251B252C253D25C984DA84D8
:1024F000EB84FC840C251D252E253F254801590120
:10250000880C991CAA1CBB1C811C8D869E86AF86DC
:10251000B88ACD80DE80EF80F884C426D526E626F2
:10252000F726C420D520E620F7200D811E812F81BB
:1025300038850C251D252E253F2575016401E7E60C
:10254000CE1AE6E8DE0AEDE7EE0AE5EAFE0A898041
:102550009A80AB80BC80C80CD91CEA1CFB1CC00E46
:10256000D11EE21EF31E8C019D01F5E0000F111F2C
:10257000221F331FFA95D1F74C015D01EBE1B694B0
:10258000A79497948794EA95D1F7802A912AA22A52
:10259000B32A8C0C9D1CAE1CBF1C93018201F2E07F
:1025A0003695279517950795FA95D1F7730162012E
:1025B000EEE1CC0CDD1CEE1CFF1CEA95D1F7C02A25
:1025C000D12AE22AF32AC982DA82EB82FC820989C3
:1025D0001A892B893C8949AC5AAC6BAC7CAC04257C
:1025E000152526253725CD8CDE8CEF8CF8A00C2503
:1025F0001D252E253F2529964CAC5DAC6EAC7FACDD
:102600002997042515252625372568017901CC0C45
:10261000DD1CEE1CFF1CC11CC98ADA8AEB8AFC8A0D
:1026200049805A806B807C80442655266626772612
:10263000482259226A227B2293018201042715270E
:102640002627372726013701E7E64E1AE6E85E0A15
:10265000EDE76E0AE5EA7E0ACD80DE80EF80F88441
:102660004C0C5D1C6E1C7F1C73016201C00ED11EE0
:10267000E21EF31ECDA2DEA2EFA2F8A68501740130
:10268000F5E0EE0CFF1C001F111FFA95D1F7240195
:1026900035012BE176946794579447942A95D1F7A6
:1026A000E428F528062917294DA05EA06FA078A47C
:1026B0004E0C5F1C601E711E4DA25EA26FA278A61A
:1026C0002C013D0132E076946794579447943A95F3
:1026D000D1F7EEE1880F991FAA1FBB1FEA95D1F72A
:1026E00084299529A629B72949A45AA46BA47CA4B6
:1026F0002196CCACDDACEEACFFAC21974C245D2434
:102700006E247F24E9A0FAA00BA11CA14E245F2413
:10271000602671262D960CAD1DAD2EAD3FAD2D97CB
:10272000402651266226732673016201CC0CDD1C03
:10273000EE1CFF1CC11CCD82DE82EF82F886498030
:102740005A806B807C80482659266A267B26482042
:1027500059206A207B2009811A812B813C81042524
:1027600015252625372526013701E7E64E1AE6E826
:102770005E0AEDE76E0AE5EA7E0A440D551D661D08
:10278000771D400F511F621F731F4DA05EA06FA0E9
:1027900078A4F5E0440C551C661C771CFA95D1F71B
:1027A0000DA11EA12FA138A5EBE136952795179510
:1027B0000795EA95D1F7402A512A622A732A440DD7
:1027C000551D661D771D24013501F2E0769467944E
:1027D00057944794FA95D1F7750164011EE1CC0C2A
:1027E000DD1CEE1CFF1C1A95D1F7C428D528E6285D
:1027F000F728AB96CCAEDDAEEEAEFFAEAB9789ACB4
:102800009AACABACBCACEDA4FEA40FA518A98E2469
:102810009F24A026B12609A91AA92BA93CA9802684
:102820009126A226B3264D845E846F847888842402
:102830009524A624B72475016401CC0CDD1CEE1C84
:10284000FF1CC11CC9A6DAA6EBA6FCA6AB968CACF5
:102850009DACAEACBFACAB9788269926AA26BB260A
:10286000EDA0FEA00FA118A58E209F20A022B122CE
:1028700088269926AA26BB2649A45AA46BA47CA420
:1028800007E6401A06E8500A0DE7600A05EA700AF2
:10289000C980DA80EB80FC804C0C5D1C6E1C7F1CB8
:1028A000840C951CA61CB71C2A013B0105E0440CB6
:1028B000551C661C771C0A95D1F76A017B012BE138
:1028C000F694E794D794C7942A95D1F74C285D28BD
:1028D0006E287F28480C591C6A1C7B1C8DA09EA06A
:1028E000AFA0B8A432E0B694A794979487943A9591
:1028F000D1F7CDA0DEA0EFA0F8A4EEE1CC0CDD1C5A
:10290000EE1CFF1CEA95D1F7C828D928EA28FB2835
:1029100021968CAC9DACAEACBFAC21970D891E89C5
:102920002F89388D80269126A226B32661960CAD7C
:102930001DAD2EAD3FAD619780269126A226B32610
:1029400009891A892B893C8980269126A226B326DB
:1029500095018401000F111F221F331F011D0983E0
:102960001A832B833C83AB968CAC9DACAEACBFACD6
:10297000AB978C249D24AE24BF2484269526A626BE
:10298000B7260F55144126423149800F911FA21FCF
:10299000B31F880D991DAA1DBB1D53014201F5E00F
:1029A000880C991CAA1CBB1CFA95D1F793018201D3
:1029B000EBE13695279517950795EA95D1F7802A8B
:1029C000912AA22AB32A880D991DAA1DBB1D4A016E
:1029D0005B01F2E0B694A79497948794FA95D1F7A7
:1029E0008A019B014EE1000F111F221F331F4A95E0
:1029F000D1F7082919292A293B290DAB1EAB2FAB8A
:102A000038AF4DA55EA56FA578A9898C9A8CAB8C43
:102A1000BC8C482559256A257B2509851A852B8577
:102A20003C8540275127622773278D809E80AF8089
:102A3000B884482559256A257B258A019B01000F0A
:102A4000111F221F331F011D0DA31EA32FA338A783
:102A50008DA89EA8AFA8B8AC8C249D24AE24BF241A
:102A600084249524A624B724B901A8014F555441C4
:102A700066427149AB960CAD1DAD2EAD3FADAB9727
:102A8000400F511F621F731F840E951EA61EB71E96
:102A9000AC01BD01E5E0440F551F661F771FEA95A5
:102AA000D1F78C019D01FBE1369527951795079588
:102AB000FA95D1F7402B512B622B732B840E951E68
:102AC000A61EB71EB301A20112E076956795579531
:102AD00047951A95D1F793018201EEE1000F111F7E
:102AE000221F331FEA95D1F7042B152B262B372BEA
:102AF0000DA71EA72FA738AB4D895E896F89788DEA
:102B000025964CAC5DAC6EAC7FAC25974425552525
:102B10006625772529960CAD1DAD2EAD3FAD2997C5
:102B2000402751276227732749A45AA46BA47CA489
:102B300044255525662577258A019B01000F111F25
:102B4000221F331F011D09AF1AAF2BAF3CAF4DA998
:102B50005EA96FA978AD4DA45EA46FA478A84425A2
:102B6000552566257725482759276A277B27280179
:102B700039010FE5401A04E1500A06E2600A01E952
:102B8000700AC40CD51CE61CF71CC40ED51EE61E2C
:102B9000F71E24013501F5E0440C551C661C771C1A
:102BA000FA95D1F7B501A4011BE176956795579584
:102BB00047951A95D1F7442A552A662A772AC40CD4
:102BC000D51CE61CF71CAC01BD0102E076956795AB
:102BD000579547950A95D1F78C019D018EE1000F1D
:102BE000111F221F331F8A95D1F7042B152B262B7B
:102BF000372B898D9A8DAB8DBC8D4D8D5E8D6F8DF4
:102C000078A184279527A627B7272D964CAC5DACD5
:102C10006EAC7FAC2D9784259525A625B7254981D7
:102C20005A816B817C8184279527A627B7272C01A1
:102C30003D01440C551C661C771C411C21964CAE72
:102C40005DAE6EAE7FAE21978DA59EA5AFA5B8A94E
:102C500080279127A227B32788259925AA25BB2558
:102C6000B301A2014F555441664271494DA85EA877
:102C70006FA878AC440D551D661D771D480F591F70
:102C80006A1F7B1FD701C601E5E0880F991FAA1FA5
:102C9000BB1FEA95D1F726013701FBE176946794D3
:102CA00057944794FA95D1F784299529A629B729ED
:102CB000480F591F6A1F7B1FD501C401E2E0B6957A
:102CC000A79597958795EA95D1F724013501FEE1FF
:102CD000440C551C661C771CFA95D1F7482A592AD2
:102CE0006A2A7B2A4D8A5E8A6F8A788E25968CADF9
:102CF0009DADAEADBFAD259769A07AA08BA09CA07D
:102D000086259725A825B9258D849E84AF84B8880B
:102D100088259925AA25BB254DA05EA06FA078A483
:102D200084259525A625B7253C014D01660C771C09
:102D3000881C991C611C6DAA7EAA8FAA98AE8D89E9
:102D40009E89AF89B88D80279127A227B3278C252C
:102D50009D25AE25BF2523013401EFE54E1AE4E1A0
:102D60005E0AE6E26E0AE1E97E0A8DA49EA4AFA4A3
:102D7000B8A8480C591C6A1C7B1C840D951DA61D07
:102D8000B71D4A015B01E5E0880C991CAA1CBB1C1D
:102D9000EA95D1F72A013B01FBE1769467945794B9
:102DA0004794FA95D1F784289528A628B7282401B6
:102DB0003501480E591E6A1E7B1ED701C601E2E08E
:102DC000B695A79597958795EA95D1F7460157014E
:102DD000FEE1880C991CAA1CBB1CFA95D1F7882A25
:102DE000992AAA2ABB2A898E9A8EAB8EBC8E8D8D8B
:102DF0009E8DAF8DB8A1A9A8BAA8CBA8DCA88A25BA
:102E00009B25AC25BD25C988DA88EB88FC888C25F4
:102E10009D25AE25BF2589AC9AACABACBCAC882552
:102E20009925AA25BB255C016D01AA0CBB1CCC1CF5
:102E3000DD1CA11CADA6BEA6CFA6D8AA8D889E88F3
:102E4000AF88B88CC98CDA8CEB8CFC8C8C249D24DC
:102E5000AE24BF2484269526A626B7268DA59EA53A
:102E6000AFA5B8A98F559441A642B149800F911FD3
:102E7000A21FB31F880D991DAA1DBB1D73016201FE
:102E800015E0CC0CDD1CEE1CFF1C1A95D1F793014C
:102E90008201EBE13695279517950795EA95D1F7CD
:102EA000C02AD12AE22AF32A8C0D9D1DAE1DBF1D1A
:102EB0008A019B01F2E03695279517950795FA95BB
:102EC000D1F76A017B014EE1CC0CDD1CEE1CFF1C2E
:102ED0004A95D1F7C02AD12AE22AF32A49A15AA158
:102EE0006BA17CA161960CAD1DAD2EAD3FAD619780
:102EF00040275127622773278D809E80AF80B8843A
:102F0000482559256A257B2521960CAD1DAD2EAD92
:102F10003FAD219740275127622773274A015B0164
:102F2000880C991CAA1CBB1C811C25968CAE9DAEDE
:102F3000AEAEBFAE2597098D1A8D2B8D3C8D0C251D
:102F40001D252E253F2504251525262537254FE54A
:102F5000841A44E1940A46E2A40A41E9B40A4D897C
:102F60005E896F89788D840E951EA61EB71E800E11
:102F7000911EA21EB31EAC01BD01E5E0440F551F1A
:102F8000661F771FEA95D1F78C019D01FBE136950D
:102F9000279517950795FA95D1F7402B512B622B62
:102FA000732B840E951EA61EB71EB301A20112E05C
:102FB00076956795579547951A95D1F793018201B4
:102FC000EEE1000F111F221F331FEA95D1F7042BEA
:102FD000152B262B372B0D8F1E8F2F8F38A349A92A
:102FE0005AA96BA97CA949845A846B847C844425A2
:102FF00055256625772509A51AA52BA53CA54027AB
:103000005127622773274DA85EA86FA878AC442586
:103010005525662577258A019B01000F111F221F68
:10302000331F011D0D8B1E8B2F8B388F0D8D1E8D29
:103030002F8D38A10C251D252E253F250827192762
:103040002A273B274D895E896F89788D4F555441DA
:1030500066427149498C5A8C6B8C7C8C440D551D91
:10306000661D771D400F511F621F731F240135011C
:10307000F5E0440C551C661C771CFA95D1F79501B8
:103080008401EBE13695279517950795EA95D1F7D9
:103090000429152926293729040F151F261F371F34
:1030A000AC01BD01F2E07695679557954795FA9585
:1030B000D1F72C013D01AEE1440C551C661C771C78
:1030C000AA95D1F7442A552A662A772A61968CADAB
:1030D0009DADAEADBFAD619729964CAD5DAD6EAD0A
:1030E0007FAD299784279527A627B72749815A813D
:1030F0006B817C8184279527A627B7274DA55EA5E0
:103100006FA578A984279527A627B727AC01BD010D
:10311000440F551F661F771F411D498F5A8F6B8FB4
:103120007C8F8D8D9E8DAF8DB8A184259525A6258C
:10313000B72588259925AA25BB254F5554416642B8
:1031400071494C0D5D1D6E1D7F1D480F591F6A1F73
:103150007B1FD901C801E5E0880F991FAA1FBB1F7B
:10316000EA95D1F768017901FBE1F694E794D794E9
:10317000C794FA95D1F78C299D29AE29BF29480F0C
:10318000591F6A1F7B1FD501C401E2E0B695A795C0
:1031900097958795EA95D1F775016401FEE1CC0C0E
:1031A000DD1CEE1CFF1CFA95D1F7C82AD92AEA2AA1
:1031B000FB2AC9A2DAA2EBA2FCA289859A85AB857B
:1031C000BC852D968CAC9DACAEACBFAC2D97882544
:1031D0009925AA25BB25ADA0BEA0CFA0D8A48A253D
:1031E0009B25AC25BD252596CCACDDACEEACFFAC6B
:1031F00025978C259D25AE25BF254C015D01880CAA
:10320000991CAA1CBB1C811C89869A86AB86BC862D
:10321000C9A0DAA0EBA0FCA0C424D524E624F7249E
:10322000C026D126E226F326D501C4018F5594414C
:10323000A642B1498D8C9E8CAF8CB8A0880D991D8B
:10324000AA1DBB1D8C0D9D1DAE1DBF1D4A015B013E
:10325000E5E0880C991CAA1CBB1CEA95D1F76A0111
:103260007B01FBE1F694E794D794C794FA95D1F7E4
:10327000C828D928EA28FB28C80ED91EEA1EFB1E3A
:10328000D901C801E2E0B695A79597958795EA958B
:10329000D1F748015901FEE1880C991CAA1CBB1CFE
:1032A000FA95D1F7882A992AAA2ABB2A8D8E9E8E52
:1032B000AF8EB8A229968CAD9DADAEADBFAD2997AE
:1032C0000D851E852F85388980279127A227B32752
:1032D00089AC9AACABACBCAC88259925AA25BB259A
:1032E0000D891E892F89388D80279127A227B32722
:1032F0004C015D01880C991CAA1CBB1C811C2996E1
:103300008CAE9DAEAEAEBFAE299789A09AA0ABA001
:10331000BCA00D8D1E8D2F8D38A180269126A22652
:10332000B32684269526A626B72629968CAD9DAD74
:10333000AEADBFAD29978F559441A642B149840DDA
:10334000951DA61DB71D880D991DAA1DBB1D9701B2
:103350008601E5E0000F111F221F331FEA95D1F708
:1033600046015701FBE1B694A79497948794FA9588
:10337000D1F7082919292A293B29800F911FA21F5B
:10338000B31F8A019B01E2E03695279517950795B3
:10339000EA95D1F7FEE1440F551F661F771FFA9596
:1033A000D1F7402B512B622B732B2D960CAD1DADFD
:1033B0002EAD3FAD2D9749885A886B887C880425AF
:1033C00015252625372521966CAC7DAC8EAC9FAC9F
:1033D00021970625172528253925898C9A8CAB8CB1
:1033E000BC8C082519252A253B2528013901440CC8
:1033F000551C661C771C411C2D964CAE5DAE6EAE06
:103400007FAE2D974D8C5E8C6F8C78A04426552610
:10341000662677264C245D246E247F242D968CAC62
:103420009DACAEACBFAC2D970FE5801A04E1900ABD
:1034300006E2A00A01E9B00A09A11AA12BA13CA148
:10344000800E911EA21EB31E840C951CA61CB71CD8
:103450002C013D0115E0440C551C661C771C1A9587
:10346000D1F78C019D01EBE13695279517950795CE
:10347000EA95D1F7402A512A622A732A840C951CB6
:10348000A61CB71C97018601F2E036952795179583
:103490000795FA95D1F726013701EEE1440C551C4A
:1034A000661C771CEA95D1F7402A512A622A732AB2
:1034B00049A25AA26BA27CA20D851E852F85388950
:1034C000CD80DE80EF80F8840C251D252E253F253C
:1034D0004DA85EA86FA878AC0425152526253725AC
:1034E000C984DA84EB84FC840C251D252E253F2518
:1034F00028013901440C551C661C771C411C4D8663
:103500005E866F86788AC9A0DAA0EBA0FCA0C426EC
:10351000D526E626F726C826D926EA26FB269301D5
:1035200082010F551441264231494D8C5E8C6F8CBF
:1035300078A0040D151D261D371D0C0D1D1D2E1DFB
:103540003F1D75016401F5E0CC0CDD1CEE1CFF1C79
:10355000FA95D1F724013501EBE1769467945794FD
:103560004794EA95D1F7C428D528E628F7280C0D0A
:103570001D1D2E1D3F1D6C017D01F2E0F694E794A8
:10358000D794C794FA95D1F72C013D01AEE1440CD4
:10359000551C661C771CAA95D1F74C285D286E280F
:1035A0007F2849AA5AAA6BAA7CAA89899A89AB89D9
:1035B000BC89C9A4DAA4EBA4FCA48C259D25AE2566
:1035C000BF254DA45EA46FA478A884259525A625C3
:1035D000B7252996CCACDDACEEACFFAC29978C2599
:1035E0009D25AE25BF252C013D01440C551C661CB4
:1035F000771C411C498A5A8A6B8A7C8A49A05AA046
:103600006BA07CA0C9A8DAA8EBA8FCA84C245D2478
:103610006E247F24482459246A247B24C988DA88AC
:10362000EB88FC888FE5C81A84E1D80A86E2E80AAC
:1036300081E9F80A4C0D5D1D6E1D7F1D440D551D61
:10364000661D771DD901C801E5E0880F991FAA1FE3
:10365000BB1FEA95D1F768017901FBE1F694E79485
:10366000D794C794FA95D1F78C299D29AE29BF2903
:10367000480F591F6A1F7B1FD501C401E2E0B695B0
:10368000A79597958795EA95D1F7FEE1880C991C47
:10369000AA1CBB1CFA95D1F7882A992AAA2ABB2A08
:1036A0004D805E806F807884C980DA80EB80FC80FA
:1036B0004C245D246E247F2425968CAD9DADAEAD4B
:1036C000BFAD2597482659266A267B262D96CCAC79
:1036D000DDACEEACFFAC2D974C245D246E247F2432
:1036E000D301C201880F991FAA1FBB1F811D8D8F97
:1036F0009E8FAF8FB8A349A85AA86BA87CA848246E
:1037000059246A247B2440265126622673266C01A4
:103710007D019FE5C91A94E1D90A96E2E90A91E987
:10372000F90A89A19AA1ABA1BCA1C80ED91EEA1EB3
:10373000FB1EC40CD51CE61CF71C2A013B01A5E0AE
:10374000440C551C661C771CAA95D1F7DB01CA01F5
:10375000EBE1B695A79597958795EA95D1F78429DA
:103760009529A629B729C80ED91EEA1EFB1ED90124
:10377000C801F2E0B695A79597958795FA95D1F788
:10378000280139011EE1440C551C661C771C1A9552
:10379000D1F7482A592A6A2A7B2A4D825E826F8293
:1037A000788689A59AA5ABA5BCA50DA11EA12FA1C0
:1037B00038A580279127A227B3274D885E886F8878
:1037C000788C84259525A625B7250D851E852F8502
:1037D000388980279127A227B3272C013D01440C6B
:1037E000551C661C771C411C49A65AA66BA67CA6D4
:1037F0004D805E806F807884482459246A247B241D
:10380000442655266626772689A59AA5ABA5BCA58C
:103810008F559441A642B14909A91AA92BA93CA9DF
:10382000800F911FA21FB31F840D951DA61DB71DEC
:1038300097018601E5E0000F111F221F331FEA9553
:10384000D1F726013701FBE17694679457944794AA
:10385000FA95D1F7402A512A622A732A480E591E36
:103860006A1E7B1EDB01CA0112E0B695A7959795EB
:1038700087951A95D1F78A019B014EE1000F111F20
:10388000221F331F4A95D1F7082B192B2A2B3B2BCC
:1038900009AB1AAB2BAB3CAB09811A812B813C8164
:1038A00049AD5AAD6BAD7CAD0427152726273727C8
:1038B000698D7A8D8B8D9C8D0627172728273927B0
:1038C00089899A89AB89BC89082719272A273B2728
:1038D000B901A801440F551F661F771F411D49A359
:1038E0005AA36BA37CA38D819E81AF81B88509A962
:1038F0001AA92BA93CA980279127A227B3278C2599
:103900009D25AE25BF258A019B010F5514412642F6
:103910003149800E911EA21EB31E880D991DAA1D4D
:10392000BB1DB301A201E5E0440F551F661F771FC1
:10393000EA95D1F793018201FBE13695279517951A
:103940000795FA95D1F7402B512B622B732B480F1B
:10395000591F6A1F7B1FD701C60112E0B695A795B4
:10396000979587951A95D1F797018601EEE1000F9B
:10397000111F221F331FEA95D1F7082B192B2A2B71
:103980003B2B8DA19EA1AFA1B8A521968CAC9DAC7F
:10399000AEACBFAC219788259925AA25BB25A98463
:1039A000BA84CB84DC848A259B25AC25BD25CD8CAF
:1039B000DE8CEF8CF8A08C259D25AE25BF254C0113
:1039C0005D01880C991CAA1CBB1C811C8DA29EA2A7
:1039D000AFA2B8A689A89AA8ABA8BCA880269126B1
:1039E000A226B32684249524A624B724CDA0DEA045
:1039F000EFA0F8A48FE5C81A84E1D80A86E2E80AA5
:103A000081E9F80A8D819E81AF81B885C80ED91EE3
:103A1000EA1EFB1EC80CD91CEA1CFB1C4A015B01F8
:103A2000F5E0880C991CAA1CBB1CFA95D1F7DB01A8
:103A3000CA01EBE1B695A79597958795EA95D1F7D9
:103A400088299929AA29BB298C0D9D1DAE1DBF1D52
:103A500073016201F2E0F694E794D794C794FA9563
:103A6000D1F753014201EEE1880C991CAA1CBB1C42
:103A7000EA95D1F78C289D28AE28BF2889829A82A2
:103A8000AB82BC82C9ACDAACEBACFCAC4DA85EA896
:103A90006FA878ACC424D524E624F72429966CAC0E
:103AA0007DAC8EAC9FAC2997C624D724E824F9249A
:103AB00089A49AA4ABA4BCA4C824D924EA24FB24D6
:103AC00026013701440C551C661C771C411C49AE6D
:103AD0005AAE6BAE7CAE89809A80AB80BC8080266B
:103AE0009126A226B32684269526A626B7267301FC
:103AF0006201EFE5CE1AE4E1DE0AE6E2EE0AE1E970
:103B0000FE0A49A85AA86BA87CA8C40CD51CE61CC0
:103B1000F71CC80CD91CEA1CFB1C4C015D01F5E02C
:103B2000880C991CAA1CBB1CFA95D1F71C012D010D
:103B3000EBE15694479437942794EA95D1F782287D
:103B40009328A428B5288C0C9D1CAE1CBF1C6A01B0
:103B50007B01F2E0F694E794D794C794FA95D1F7F5
:103B60002A013B014EE1440C551C661C771C4A950A
:103B7000D1F74C285D286E287F284D825E826F82A7
:103B8000788621964CAD5DAD6EAD7FAD2197CDA40D
:103B9000DEA4EFA4F8A84C255D256E257F252D9683
:103BA0004CAC5DAC6EAC7FAC2D974425552566259D
:103BB0007725C9A0DAA0EBA0FCA04C255D256E25D9
:103BC0007F252A013B01440C551C661C771C411CB7
:103BD00021964CAE5DAE6EAE7FAE219749815A8183
:103BE0006B817C81CD80DE80EF80F8844C255D2563
:103BF0006E257F25482759276A277B277301620195
:103C0000EFE5CE1AE4E1DE0AE6E2EE0AE1E9FE0AB9
:103C1000C00ED11EE21EF31E4C0D5D1D6E1D7F1DDC
:103C200075016401E5E0CC0CDD1CEE1CFF1CEA957F
:103C3000D1F795018401FBE13695279517950795F6
:103C4000FA95D1F7C02AD12AE22AF32AC40ED51E4A
:103C5000E61EF71EAC01BD0112E0769567955795FB
:103C600047951A95D1F70EE1880F991FAA1FBB1F20
:103C70000A95D1F7842B952BA62BB72B4DA95EA9BE
:103C80006FA978AD25964CAC5DAC6EAC7FAC25973A
:103C900044255525662577250D851E852F85388970
:103CA00040275127622773274DA05EA06FA078A4FC
:103CB00044255525662577258A019B01000F111F94
:103CC000221F331F011D0DAB1EAB2FAB38AF1401EC
:103CD0002501282A392A4A2A5B2A2D813E814F81D3
:103CE00058852222332244225522B501A4014823BB
:103CF00059236A237B23242A352A462A572A4DA989
:103D00005EA96FA978AD44525344644E704709814F
:103D10001A812B813C81400F511F621F731F420D7E
:103D2000531D641D751D97018601E5E0000F111FED
:103D3000221F331FEA95D1F726013701FBE1769464
:103D4000679457944794FA95D1F7042915292629A1
:103D50003729040F151F261F371FB501A401E2E004
:103D60007695679557954795EA95D1F724013501E2
:103D7000FEE1440C551C661C771CFA95D1F7442AC9
:103D8000552A662A772A49825A826B827C824DA5FF
:103D90005EA56FA578A96D887E888F88988C46254A
:103DA00057256825792589889A88AB88BC88482555
:103DB00059256A257B2549AC5AAC6BAC7CAC4425B3
:103DC0005525662577253A014B01660C771C881C22
:103DD000991C611C6DA67EA68FA698AA49815A815E
:103DE0006B817C814C295D296E297F2948235923C9
:103DF0006A237B2389809A80AB80BC808C209D20A5
:103E0000AE20BF20842A952AA62AB72A4DA45EA4F4
:103E10006FA478A844E2441A43E4540A44EE640AC6
:103E200040E7740A4D815E816F817885440E551E8E
:103E3000661E771E840C951CA61CB71CB901A80130
:103E4000E5E0440F551F661F771FEA95D1F728015B
:103E50003901FBE17694679457944794FA95D1F72A
:103E60004429552966297729840E951EA61EB71E5A
:103E7000B701A601E2E07695679557954795EA95D3
:103E8000D1F726013701FEE1440C551C661C771C56
:103E9000FA95D1F7442A552A662A772A25964CADF9
:103EA0005DAD6EAD7FAD2597C98CDA8CEB8CFC8C4B
:103EB0004C255D256E257F25CD8CDE8CEF8CF8A002
:103EC0004C255D256E257F252196CCACDDACEEAC76
:103ED000FFAC21974C255D256E257F256A017B016E
:103EE000CC0CDD1CEE1CFF1CC11C2596CCAEDDAE3F
:103EF000EEAEFFAE259768017901C428D528E628E3
:103F0000F72849815A816B817C81C422D522E6221F
:103F1000F722B901A80144215521662177214C29B6
:103F20005D296E297F292596CCACDDACEEACFFACCB
:103F30002597E4E2CE1AE3E4DE0AE4EEEE0AE0E7D7
:103F4000FE0A8C0D9D1DAE1DBF1D840F951FA61F63
:103F5000B71F7501640145E0CC0CDD1CEE1CFF1C95
:103F60004A95D1F7B501A401EBE176956795579590
:103F70004795EA95D1F7C42AD52AE62AF72A8C0D67
:103F80009D1DAE1DBF1DB901A801F2E07695679594
:103F900057954795FA95D1F7680179011EE1CC0C48
:103FA000DD1CEE1CFF1C1A95D1F7C42AD52AE62A7F
:103FB000F72ACD82DE82EF82F8860D891E892F894D
:103FC000388D49855A856B857C85042715272627DA
:103FD0003727C9A4DAA4EBA4FCA40C251D252E25A3
:103FE0003F254DA95EA96FA978AD0427152726277F
:103FF000372768017901CC0CDD1CEE1CFF1CC11CAD
:10400000CD8ADE8AEF8AF88ECD80DE80EF80F8845C
:10401000C828D928EA28FB28C420D520E620F72084
:104020004D815E816F817885482159216A217B21EC
:10403000C42AD52AE62AF72A4D895E896F89788DA8
:1040400044525344644E704709811A812B813C814C
:10405000400F511F621F731F4C0D5D1D6E1D7F1D94
:104060008C019D01E5E0000F111F221F331FEA950F
:10407000D1F76C017D01FBE1F694E794D794C794E6
:10408000FA95D1F70C291D292E293F29400F511FE0
:10409000621F731F95018401E2E0369527951795FD
:1040A0000795EA95D1F775016401FEE1CC0CDD1CA2
:1040B000EE1CFF1CFA95D1F7C02AD12AE22AF32A76
:1040C000C982DA82EB82FC82098D1A8D2B8D3C8DA0
:1040D00029968CAC9DACAEACBFAC299708251925B0
:1040E0002A253B25A9A0BAA0CBA0DCA00A251B2528
:1040F0002C253D25CDA4DEA4EFA4F8A80C251D2574
:104100002E253F2548015901880C991CAA1CBB1C6F
:10411000811C898E9A8EAB8EBC8E09811A812B816F
:104120003C81082B192B2A2B3B2BAD80BE80CF80E6
:10413000D8840A211B212C213D21C980DA80EB8003
:10414000FC80C822D922EA22FB220C291D292E2913
:104150003F29C98CDA8CEB8CFC8CE4E2CE1AE3E4C8
:10416000DE0AE4EEEE0AE0E7FE0AC40CD51CE61C0B
:10417000F71CC00ED11EE21EF31E4A015B0115E0C2
:10418000880C991CAA1CBB1C1A95D1F72A013B016B
:104190000BE176946794579447940A95D1F7842855
:1041A0009528A628B728C80CD91CEA1CFB1C8C0132
:1041B0009D01E2E03695279517950795EA95D1F789
:1041C0002C013D01FEE1440C551C661C771CFA9540
:1041D000D1F7402A512A622A732A89859A85AB85AC
:1041E000BC852D968CAC9DACAEACBFAC2D97882514
:1041F0009925AA25BB250DA11EA12FA138A5802791
:104200009127A227B32725968CAC9DACAEACBFAC52
:10421000259788259925AA25BB258C019D01000F8E
:10422000111F221F331F011D09AB1AAB2BAB3CAB77
:104230004A015B0184289528A628B72889819A819C
:10424000AB81BC8188229922AA22BB228A019B01D0
:104250000421152126213721802A912AA22AB32A56
:1042600009A91AA92BA93CA904521344244E30478A
:104270008D819E81AF81B885080F191F2A1F3B1FB2
:10428000080D191D2A1D3B1DD701C601E5E0880F49
:10429000991FAA1FBB1FEA95D1F746015701FBE101
:1042A000B694A79497948794FA95D1F78829992979
:1042B000AA29BB29080F191F2A1F3B1FDB01CA01AE
:1042C000E2E0B695A79597958795EA95D1F74A01CB
:1042D0005B01FEE1880C991CAA1CBB1CFA95D1F766
:1042E000882A992AAA2ABB2A8D829E82AF82B88602
:1042F00029968CAD9DADAEADBFAD29974D855E8540
:104300006F85788984279527A627B72789AC9AAC2B
:10431000ABACBCAC88259925AA25BB254D895E8907
:104320006F89788D84279527A627B7274C015D01D3
:10433000880C991CAA1CBB1C811C29968CAE9DAEB6
:10434000AEAEBFAE29978D819E81AF81B8858C2995
:104350009D29AE29BF2984219521A621B7218D80D1
:104360009E80AF80B8848C209D20AE20BF208829FD
:104370009929AA29BB2929968CAC9DACAEACBFACBF
:10438000299744E2841A43E4940A44EEA40A40E7DD
:10439000B40A49815A816B817C81840E951EA61EC8
:1043A000B71E880D991DAA1DBB1DB901A801E5E026
:1043B000440F551F661F771FEA95D1F74801590131
:1043C000FBE1B694A79497948794FA95D1F748297E
:1043D00059296A297B294A015B01880E991EAA1E68
:1043E000BB1ED701C60142E0B695A7959795879564
:1043F0004A95D1F7B701A601EEE1440F551F661F9C
:10440000771FEA95D1F7482B592B6A2B7B2B2D96DA
:104410008CAD9DADAEADBFAD2D97C988DA88EB8868
:10442000FC888C259D25AE25BF252196CCACDDAC26
:10443000EEACFFAC21978C259D25AE25BF25C98C00
:10444000DA8CEB8CFC8C8C259D25AE25BF256C0170
:104450007D01CC0CDD1CEE1CFF1CC11C2D96CCAECE
:10446000DDAEEEAEFFAE2D9768017901C42AD52AE4
:10447000E62AF72A8D819E81AF81B885C822D9228C
:10448000EA22FB22D901C80184239523A623B7235E
:10449000C82AD92AEA2AFB2A2D968CAD9DADAEAD4D
:1044A000BFAD2D9784529344A44EB047840D951D03
:1044B000A61DB71D8C0D9D1DAE1DBF1D7501640190
:1044C000F5E0CC0CDD1CEE1CFF1CFA95D1F72401A5
:1044D0003501EBE17694679457944794EA95D1F7C8
:1044E000C428D528E628F7288C0D9D1DAE1DBF1DBC
:1044F00068017901F2E0F694E794D794C794FA95AD
:10450000D1F7280139011EE1440C551C661C771CAB
:104510001A95D1F74C285D286E287F2849825A8247
:104520006B827C820D851E852F853889CD8CDE8C33
:10453000EF8CF8A00C251D252E253F254DA85EA843
:104540006FA878AC0425152526253725C9A8DAA833
:10455000EBA8FCA80C251D252E253F252801390197
:10456000440C551C661C771C411C4D865E866F866C
:10457000788A49805A806B807C80482859286A282C
:104580007B284422552266227722C980DA80EB807C
:10459000FC80C820D920EA20FB204C285D286E280A
:1045A0007F28CD84DE84EF84F88804E2C01A03E417
:1045B000D00A04EEE00A00E7F00A0D811E812F8187
:1045C0003885C00ED11EE21EF31EC40CD51CE61C9D
:1045D000F71C8C019D01E5E0000F111F221F331F06
:1045E000EA95D1F72C013D01FBE17694679457944D
:1045F0004794FA95D1F7402A512A622A732A4C0C23
:104600005D1C6E1C7F1C95018401E2E036952795A8
:1046100017950795EA95D1F775016401FEE1CC0C79
:10462000DD1CEE1CFF1CFA95D1F7C02AD12AE22A24
:10463000F32ACD82DE82EF82F88609891A892B89D6
:104640003C8989A49AA4ABA4BCA4082519252A25D1
:104650003B25ADA4BEA4CFA4D8A80A251B252C2594
:104660003D252996CCACDDACEEACFFAC29970C25F2
:104670001D252E253F2548015901880C991CAA1C8F
:10468000BB1C811C898A9A8AAB8ABC8A0D811E81D7
:104690002F813885082B192B2A2B3B2BA980BA8018
:1046A000CB80DC800A211B212C213D21CD80DE80A6
:1046B000EF80F884C822D922EA22FB220C291D2986
:1046C0002E293F29C988DA88EB88FC88E4E2CE1AD3
:1046D000E3E4DE0AE4EEEE0AE0E7FE0AC40ED51ECD
:1046E000E61EF71EC00ED11EE21EF31E530142014C
:1046F00015E0880C991CAA1CBB1C1A95D1F7B301B4
:10470000A2010BE176956795579547950A95D1F7E4
:10471000842A952AA62AB72AC80CD91CEA1CFB1C95
:10472000AC01BD0122E076956795579547952A958E
:10473000D1F74C015D013EE1880C991CAA1CBB1C01
:104740003A95D1F7842A952AA62AB72A89869A8685
:10475000AB86BC860D8D1E8D2F8D38A149A15AA127
:104760006BA17CA1042715272627372725966CAD3A
:104770007DAD8EAD9FAD25970627172728273927B2
:104780002D968CAD9DADAEADBFAD2D9708271927E9
:104790002A273B2748015901880C991CAA1CBB1CDD
:1047A000811C8D8E9E8EAF8EB8A249855A856B85F1
:1047B0007C8544295529662977290D811E812F8101
:1047C0003885402351236223732309851A852B855D
:1047D0003C850421152126213721402B512B622BAA
:1047E000732B9501840104521344244E3047898170
:1047F0009A81AB81BC81080F191F2A1F3B1F040F30
:10480000151F261F371FD701C60145E0880F991FC6
:10481000AA1FBB1F4A95D1F7460157015BE1B69429
:10482000A794979487945A95D1F788299929AA290A
:10483000BB29080F191F2A1F3B1FD301C20162E0C9
:10484000B695A795979587956A95D1F7B301A2017B
:10485000EEE1440F551F661F771FEA95D1F7482BED
:10486000592B6A2B7B2B89A59AA5ABA5BCA54DA07E
:104870005EA06FA078A484259525A625B7256D8810
:104880007E888F88988C86259725A825B9258D84C4
:104890009E84AF84B88888259925AA25BB252C013C
:1048A0003D01440C551C661C771C411C49A65AA6A8
:1048B0006BA67CA626013701442A552A662A772A48
:1048C00089849A84AB84BC84482059206A207B2048
:1048D0004601570184229522A622B722482859284A
:1048E0006A287B2889A49AA4ABA4BCA484E2881A71
:1048F00083E4980A84EEA80A80E7B80A8D819E8135
:10490000AF81B885880E991EAA1EBB1E840C951C0B
:10491000A61CB71C28013901F5E0440C551C661C87
:10492000771CFA95D1F7D901C801EBE1B695A795A7
:1049300097958795EA95D1F784299529A629B729CE
:10494000880E991EAA1EBB1ED701C601F2E0B695BD
:10495000A79597958795FA95D1F726013701EEE14E
:10496000440C551C661C771CEA95D1F7482A592A35
:104970006A2A7B2A49825A826B827C8289A19AA107
:10498000ABA1BCA1C9ACDAACEBACFCAC8C259D25D1
:10499000AE25BF25498C5A8C6B8C7C8C8425952543
:1049A000A625B725C988DA88EB88FC888C259D2543
:1049B000AE25BF252C013D01440C551C661C771CFF
:1049C000411C49A25AA26BA27CA2C980DA80EB806A
:1049D000FC80C02AD12AE22AF32AC422D522E62268
:1049E000F72289819A81AB81BC8180239123A22304
:1049F000B323C82AD92AEA2AFB2AD301C201845246
:104A00009344A44EB04749845A846B847C84840DBB
:104A1000951DA61DB71D8C0D9D1DAE1DBF1D7501DD
:104A20006401F5E0CC0CDD1CEE1CFF1CFA95D1F7FF
:104A300024013501EBE17694679457944794EA9505
:104A4000D1F7C428D528E628F7288C0D9D1DAE1D6A
:104A5000BF1D68017901F2E0F694E794D794C794FA
:104A6000FA95D1F7280139011EE1440C551C661C4A
:104A7000771C1A95D1F74C285D286E287F284D8227
:104A80005E826F8278860DA11EA12FA138A5219686
:104A9000CCACDDACEEACFFAC21970C251D252E2552
:104AA0003F2549A85AA86BA87CA8042515252625CA
:104AB0003725CD8CDE8CEF8CF8A00C251D252E25FE
:104AC0003F2528013901440C551C661C771C411CEC
:104AD0004DA25EA26FA278A60D811E812F8138851E
:104AE000082919292A293B29C980DA80EB80FC8012
:104AF0000C211D212E213F214D805E806F80788406
:104B0000482059206A207B20042915292629372985
:104B10004DA05EA06FA078A4E4E24E1AE3E45E0A22
:104B2000E4EE6E0AE0E77E0A440E551E661E771E0E
:104B3000400E511E621E731E8C019D0145E0000F48
:104B4000111F221F331F4A95D1F7AC01BD01EBE1C4
:104B50007695679557954795EA95D1F7042B152BD0
:104B6000262B372B400E511E621E731EB501A40169
:104B7000F2E07695679557954795FA95D1F77501C7
:104B800064011EE1CC0CDD1CEE1CFF1C1A95D1F754
:104B9000C42AD52AE62AF72AC986DA86EB86FC8655
:104BA00049AD5AAD6BAD7CADEDA8FEA80FA918AD0F
:104BB0004E255F256027712729960CAD1DAD2EADC2
:104BC0003FAD2997402751276227732789A49AA4CC
:104BD000ABA4BCA4482559256A257B255A016B0145
:104BE000AA0CBB1CCC1CDD1CA11CA9AEBAAECBAE62
:104BF000DCAE09851A852B853C85082B192B2A2BC1
:104C00003B2BCD80DE80EF80F8840C211D212E21EE
:104C10003F21C984DA84EB84FC84C822D922EA22A9
:104C2000FB220C291D292E293F29C9ACDAACEBAC9B
:104C3000FCAC44E2C41A43E4D40A44EEE40A40E77C
:104C4000F40A89809A80AB80BC80C80CD91CEA1C0D
:104C5000FB1CC00ED11EE21EF31E5301420105E0F3
:104C6000880C991CAA1CBB1C0A95D1F7B301A201A0
:104C70002BE176956795579547952A95D1F7842A24
:104C8000952AA62AB72AC80CD91CEA1CFB1CAC0121
:104C9000BD0132E076956795579547953A95D1F7DE
:104CA0008C019D01EEE1000F111F221F331FEA95B9
:104CB000D1F7042B152B262B372B09831A832B8333
:104CC0003C8321968CAD9DADAEADBFAD21972DA59A
:104CD0003EA54FA558A982279327A427B5272D962F
:104CE0004CAD5DAD6EAD7FAD2D9784279527A62782
:104CF000B72789A09AA0ABA0BCA088259925AA2592
:104D0000BB258C019D01000F111F221F331F011DA8
:104D100021960CAF1DAF2EAF3FAF219749815A812D
:104D20006B817C81442955296629772989859A8553
:104D3000AB85BC85482359236A237B2389809A80CD
:104D4000AB80BC8084209520A620B720842A952A99
:104D5000A62AB72A04521344244E30474D815E815F
:104D60006F817885040F151F261F371F800E911E37
:104D7000A21EB31EB701A601F5E0440F551F661F22
:104D8000771FFA95D1F797018601ABE13695279504
:104D900017950795AA95D1F7042B152B262B372BA2
:104DA000080D191D2A1D3B1DD301C20142E0B69515
:104DB000A795979587954A95D1F7530142015EE1F2
:104DC000880C991CAA1CBB1C5A95D1F7882A992AD1
:104DD000AA2ABB2A8D829E82AF82B8864DA95EA97F
:104DE0006FA978AD25968CAD9DADAEADBFAD2597C5
:104DF000482759276A277B274D845E846F847888EB
:104E000044255525662577256DA07EA08FA098A402
:104E100046255725682579254A015B01880C991C90
:104E2000AA1CBB1C811C8DAA9EAAAFAAB8AE4D813C
:104E30005E816F8178854C295D296E297F29898162
:104E40009A81AB81BC81482359236A237B238D80BF
:104E50009E80AF80B8848C209D20AE20BF20482942
:104E600059296A297B298DA89EA8AFA8B8AC94E2DD
:104E7000891A93E4990A94EEA90A90E7B90A498439
:104E80005A846B847C84840C951CA61CB71C840EED
:104E9000951EA61EB71ED901C80165E0880F991F8F
:104EA000AA1FBB1F6A95D1F7280139017BE17694CF
:104EB0006794579447947A95D1F784299529A62920
:104EC000B729880D991DAA1DBB1DB701A601E2E0F7
:104ED0007695679557954795EA95D1F7360147013D
:104EE000FEE1660C771C881C991CFA95D1F7642AA0
:104EF000752A862A972A69867A868B869C864DA58E
:104F00005EA56FA578A98D889E88AF88B88C482546
:104F100059256A257B25A988BA88CB88DC884A254B
:104F20005B256C257D25C9ACDAACEBACFCAC4C2523
:104F30005D256E257F252A013B01440C551C661C0E
:104F4000771C411C4DA65EA66FA678AA89849A8418
:104F5000AB84BC84802A912AA22AB32ACD80DE8029
:104F6000EF80F8848C209D20AE20BF2049845A8495
:104F70006B847C84402251226222732284289528EB
:104F8000A628B7284DA45EA46FA478A844E2441ACA
:104F900043E4540A44EE640A40E7740AC980DA80A4
:104FA000EB80FC804C0C5D1C6E1C7F1C480C591C5B
:104FB0006A1C7B1CAC01BD01E5E0440F551F661F58
:104FC000771FEA95D1F76C017D01FBE1F694E79438
:104FD000D794C794FA95D1F74C295D296E297F297A
:104FE000440D551D661D771D68017901E2E0F694B8
:104FF000E794D794C794EA95D1F728013901FEE1E7
:10500000440C551C661C771CFA95D1F74C285D287A
:105010006E287F2849825A826B827C8225960CAD4D
:105020001DAD2EAD3FAD2597698C7A8C8B8C9C8CF9
:1050300006251725282539258D8C9E8CAF8CB8A088
:10504000082519252A253B252196ACACBDACCEAC54
:10505000DFAC21970A251B252C253D256801790108
:10506000CC0CDD1CEE1CFF1CC11C2596CCAEDDAEAD
:10507000EEAEFFAE259789809A80AB80BC80882AEF
:10508000992AAA2ABB2AE984FA840B851C858E20DA
:105090009F20A022B12249805A806B807C804822C8
:1050A00059226A227B2284289528A628B72825968B
:1050B0004CAC5DAC6EAC7FAC259704E2401A03E4C7
:1050C000500A04EE600A00E7700ACD80DE80EF80AF
:1050D000F8844C0C5D1C6E1C7F1C480C591C6A1C0F
:1050E0007B1C6A017B0115E0CC0CDD1CEE1CFF1C57
:1050F0001A95D1F78A019B01EBE136952795179513
:105100000795EA95D1F7C02AD12AE22AF32AC40CDE
:10511000D51CE61CF71C8C019D01F2E03695279505
:1051200017950795FA95D1F7EEE1880F991FAA1FF9
:10513000BB1FEA95D1F7802B912BA22BB32B0D89A6
:105140001E892F89388D49A85AA86BA87CA80425E8
:1051500015252625372569A47AA48BA49CA40625A9
:105160001725282539258DA89EA8AFA8B8AC0825F5
:1051700019252A253B2528013901440C551C661C9C
:10518000771C411C4D825E826F8278868A019B016A
:10519000082B192B2A2B3B2B69807A808B809C80D3
:1051A00006211721282139214A015B0188229922F1
:1051B000AA22BB22802A912AA22AB32A4D805E808D
:1051C0006F80788404E2401A03E4500A04EE600A17
:1051D00000E7700A09851A852B853C85400E511E13
:1051E000621E731E840C951CA61CB71C97018601B9
:1051F000F5E0000F111F221F331FFA95D1F726018A
:105200003701EBE17694679457944794EA95D1F788
:105210000429152926293729800E911EA21EB31EA6
:105220008A019B01F2E03695279517950795FA9527
:10523000D1F72A013B014EE1440C551C661C771C3A
:105240004A95D1F7402A512A622A732A4D8A5E8AEA
:105250006F8A788E498D5A8D6B8D7C8D29960CAD19
:105260001DAD2EAD3FAD29974027512762277327EB
:1052700049A05AA06BA07CA044255525662577251A
:105280000DA51EA52FA538A94027512762277327F2
:105290002A013B01440C551C661C771C411C4986A5
:1052A0005A866B867C864D885E886F88788C482607
:1052B00059266A267B264C245D246E247F2409858A
:1052C0001A852B853C850A521E432D493543498159
:1052D0005A816B817C81040F151F261F371F040D17
:1052E000151D261D371DB501A401E5E0440F551F0E
:1052F000661F771FEA95D1F724013501FBE176940B
:10530000679457944794FA95D1F74429552966290B
:105310007729040F151F261F371FB701A601E2E0EA
:105320007695679557954795EA95D1F72601370108
:10533000FEE1440C551C661C771CFA95D1F7442AF3
:10534000552A662A772A49A95AA96BA97CA92D96BC
:10535000CCACDDACEEACFFAC2D974C255D256E25BD
:105360007F25CDA0DEA0EFA0F8A44C255D256E25FD
:105370007F252596CCACDDACEEACFFAC25974C255B
:105380005D256E257F256A017B01CC0CDD1CEE1CA2
:10539000FF1CC11CC982DA82EB82FC824D895E89C6
:1053A0006F89788D4425552566257725482559250B
:1053B0006A257B25EAE2CE1AEEE3DE0AEDE9EE0A83
:1053C000E5E3FE0A8C0D9D1DAE1DBF1D840F951FCC
:1053D000A61FB71F6801790145E0CC0CDD1CEE1C4F
:1053E000FF1C4A95D1F7B901A801EBE176956795C5
:1053F00057954795EA95D1F7C42AD52AE62AF72A80
:105400008C0D9D1DAE1DBF1DB501A401F2E076956A
:10541000679557954795FA95D1F775016401EEE1C7
:10542000CC0CDD1CEE1CFF1CEA95D1F7C42AD52A52
:10543000E62AF72AC98EDA8EEB8EFC8E2996CCAC42
:10544000DDACEEACFFAC29974D855E856F85788924
:10545000C426D526E626F72689AC9AACABACBCAC04
:10546000C824D924EA24FB244D815E816F8178858C
:10547000C426D526E626F72646015701880C991C36
:10548000AA1CBB1C811C29968CAE9DAEAEAEBFAED5
:105490002997C98CDA8CEB8CFC8CC424D524E624A7
:1054A000F724C026D126E226F326B501A4014A52EC
:1054B0005E436D4975438D889E88AF88B88C480DD2
:1054C000591D6A1D7B1D4C0D5D1D6E1D7F1D4C0100
:1054D0005D01F5E0880C991CAA1CBB1CFA95D1F75C
:1054E0006C017D01EBE1F694E794D794C794EA95BB
:1054F000D1F78C289D28AE28BF28480D591D6A1D5C
:105500007B1D68017901F2E0F694E794D794C79483
:10551000FA95D1F7480159011EE1880C991CAA1C83
:10552000BB1C1A95D1F78C289D28AE28BF288D8AE0
:105530009E8AAF8AB88E2D960CAD1DAD2EAD3FADB7
:105540002D97A988BA88CB88DC880A251B252C25AD
:105550003D252196CCACDDACEEACFFAC21970C2503
:105560001D252E253F2589849A84AB84BC8408257B
:1055700019252A253B2558016901AA0CBB1CCC1C06
:10558000DD1CA11C2D96ACAEBDAECEAEDFAE2D9710
:10559000898C9A8CAB8CBC8CCD88DE88EF88F88C9B
:1055A0008C249D24AE24BF2488269926AA26BB26B7
:1055B0002D96CCACDDACEEACFFAC2D970AE2C01A58
:1055C0000EE3D00A0DE9E00A05E3F00AC40CD51C8D
:1055D000E61CF71CC80CD91CEA1CFB1C8A019B01A9
:1055E000E5E0000F111F221F331FEA95D1F72A01B2
:1055F0003B01FBE17694679457944794FA95D1F771
:105600000429152926293729C00ED11EE21EF31EB2
:105610008C019D01E2E03695279517950795EA954F
:10562000D1F72C013D01FEE1440C551C661C771C92
:10563000FA95D1F7402A512A622A732A49AA5AAA0E
:105640006BAA7CAA8D859E85AF85B8896D8C7E8C72
:105650008F8C98A086259725A825B9258DA89EA86A
:10566000AFA8B8AC88259925AA25BB2509811A8140
:105670002B813C8180279127A227B3272C013D0154
:10568000440C551C661C771C411C61964CAE5DAEEB
:105690006EAE7FAE61978D899E89AF89B88D69A8FE
:1056A0007AA88BA89CA886259725A825B9258427A4
:1056B0009527A627B72761968CAC9DACAEACBFAC46
:1056C00061970AE2801A0EE3900A0DE9A00A05E349
:1056D000B00A498C5A8C6B8C7C8C840C951CA61C53
:1056E000B71C880E991EAA1EBB1ED701C60115E065
:1056F000880F991FAA1FBB1F1A95D1F726013701E2
:105700000BE176946794579447940A95D1F78429CE
:105710009529A629B729880E991EAA1EBB1EDB0152
:10572000CA0122E0B695A795979587952A95D1F756
:105730008A019B014EE1000F111F221F331F4A9562
:10574000D1F7082B192B2A2B3B2B0D871E872F8770
:10575000388B89899A89AB89BC8929A53AA54BA53B
:105760005CA582279327A427B5274DA55EA56FA525
:1057700078A984279527A627B72729964CAC5DAC36
:105780006EAC7FAC299784259525A625B7258C017D
:105790009D01000F111F221F331F011D098F1A8F3A
:1057A0002B8F3C8F89A99AA9ABA9BCA92D853E85D1
:1057B0004F85588982279327A427B5278C259D25B7
:1057C000AE25BF25098D1A8D2B8D3C8D0A521E43A7
:1057D0002D4935434D895E896F89788D040F151FDA
:1057E000261F371F800F911FA21FB31FB501A401F1
:1057F000E5E0440F551F661F771FEA95D1F7240196
:105800003501FBE17694679457944794FA95D1F764
:1058100044295529662977298A019B01080F191FF8
:105820002A1F3B1FD701C60142E0B695A795979561
:1058300087954A95D1F7260137015EE1440C551C46
:10584000661C771C5A95D1F7482A592A6A2A7B2A5E
:10585000498A5A8A6B8A7C8A4D8C5E8C6F8C78A0C0
:10586000C9A0DAA0EBA0FCA04C245D246E247F2408
:1058700025964CAD5DAD6EAD7FAD25974426552682
:10588000662677262D966CAD7DAD8EAD9FAD2D979E
:105890004626572668267926D301C201880F991F0C
:1058A000AA1FBB1F811D8D8B9E8BAF8BB88F4D8424
:1058B0005E846F847888C988DA88EB88FC884C24F9
:1058C0005D246E247F24482459246A247B248A5230
:1058D0009E43AD49B54349A95AA96BA97CA9840F38
:1058E000951FA61FB71F840D951DA61DB71D680126
:1058F000790165E0CC0CDD1CEE1CFF1C6A95D1F72C
:10590000B901A801EBE17695679557954795EA951A
:10591000D1F7C42AD52AE62AF72A8C0D9D1DAE1D83
:10592000BF1DB501A401F2E076956795579547959F
:10593000FA95D1F775016401EEE1CC0CDD1CEE1C8B
:10594000FF1CEA95D1F7C42AD52AE62AF72A49A5E9
:105950005AA56BA57CA54DA05EA06FA078A4442598
:105960005525662577256D807E808F809884462515
:1059700057256825792561968CAC9DACAEACBFAC43
:105980006197482559256A257B252A013B01440C4E
:10599000551C661C771C411C4D8E5E8E6F8E78A246
:1059A00049885A886B887C884C245D246E247F2427
:1059B00040265126622673264D8D5E8D6F8D78A10F
:1059C0004A525E436D4975438D849E84AF84B88886
:1059D000480D591D6A1D7B1D440D551D661D771D03
:1059E0002C013D01F5E0440C551C661C771CFA9512
:1059F000D1F74C015D01EBE1B694A794979487949D
:105A0000EA95D1F7482859286A287B28440D551D66
:105A1000661D771D48015901F2E0B694A79497944A
:105A20008794FA95D1F7280139011EE1440C551CE1
:105A3000661C771C1A95D1F7482859286A287B28B4
:105A40004D865E866F86788A09A11AA12BA13CA19A
:105A500069AC7AAC8BAC9CAC06251725282539257A
:105A600089849A84AB84BC84082519252A253B2582
:105A7000498C5A8C6B8C7C8C042515252625372562
:105A800038014901660C771C881C991C611C69A2AD
:105A90007AA28BA29CA28D849E84AF84B8888C2429
:105AA0009D24AE24BF2488269926AA26BB2649A079
:105AB0005AA06BA07CA00AE2401A0EE3500A0DE93E
:105AC000600A05E3700A09891A892B893C89400E0E
:105AD000511E621E731E480C591C6A1C7B1C8A01D5
